:10000000FDC0000017C100000C94C71113C100000F
:1000100011C100000FC100000DC100000BC10000A4
:1000200009C1000007C1000005C1000003C10000B4
:1000300001C10000FFC000002FC70000FBC000008E
:10004000F9C00000F7C00000F5C00000F3C00000D8
:100050000C947608EFC00000EDC00000EBC000007B
:10006000E9C00000E7C00000E5C00000E3C00000F8
:10007000E1C00000DFC00000DDC00000DBC0000008
:10008000D9C00000D7C00000D5C00000D3C0000018
:10009000D1C00000CFC00000CDC00000CBC0000028
:1000A000C9C00000C7C00000C5C00000C3C0000038
:1000B000C1C00000BFC00000BDC00000BBC0000048
:1000C000B9C00000B7C00000B5C00000B3C0000058
:1000D000B1C00000AFC00000ADC00000ABC0000068
:1000E000A9C00000A7C00000A5C00000A3C0000078
:1000F000A1C000009FC000009DC000009BC0000088
:100100000C9478110C949F1195C0000093C00000CE
:1001100091C000008FC000008DC000008BC00000A7
:1001200089C0000087C0000085C0000083C00000B7
:1001300081C000007FC000007DC000007BC00000C7
:1001400079C0000077C0000075C0000073C00000D7
:1001500071C000006FC000006DC000006BC00000E7
:1001600069C0000067C0000065C0000063C00000F7
:1001700061C000005FC000005DC000005BC0000007
:1001800059C0000057C0000055C0000053C0000017
:1001900051C000004FC000004DC000004BC0000027
:1001A00049C0000047C0000045C0000043C0000037
:1001B00041C000003FC000003DC000003BC0000047
:1001C00039C0000037C0000035C0000033C0000057
:1001D00031C000002FC000002DC000002BC0000067
:1001E00029C0000027C0000025C0000023C0000077
:1001F00021C0000065C200001DC0000011241FBE08
:10020000CFEFCDBFDFE2DEBF11E2A0E0B0E2EEE46F
:10021000F4E202C005900D92A239B107D9F726E2A7
:10022000A2E9B1E201C01D92AB34B207E1F732D6C8
:100230000C942512E5CECF93DF93EC01DC011396ED
:100240009C01265F3F4FE0E09D91E927F0E0E05BF5
:10025000FF4DE081A217B307B9F7EA87DF91CF918D
:100260000895DC01FC013396AC01465F5F4F20E04E
:100270009191392F32953F709F70930F290FE4179A
:10028000F507B1F72E5F1A968C911A97807F2F7021
:10029000280F1A962C930895FC01DB01808121819F
:1002A000922F937095958795959587958C938081DE
:1002B000918191819695969562816295660F660F00
:1002C000607C262F292B928196959695392F337035
:1002D0008295880F880F807C3595279535952795D1
:1002E00035952795359527952F71282B11962C93A9
:1002F00011978181982F9695969582818295880F86
:10030000880F807C892B9281928192959F70829533
:10031000807F892B12968C931297838113968C93EE
:1003200013978481948197FB992790F9880F892BE3
:1003300014968C931497358165819581292F229588
:1003400026952695237086818770880F880F982FB1
:10035000922B832F8295880F807E65FB442740F97E
:1003600050E0440F551F440F551F4470482B892FF0
:1003700090E0959587959595879595958795837048
:10038000842B15968C9315978581982F9295969529
:100390009695937086818770880F880F892B968138
:1003A000978197818295880F807E969596959695F0
:1003B000892B16968C9316978681982F96959695ED
:1003C000969587818295880F807E892B97811796D5
:1003D0008C930895FC01DB012C9130E0220F331F38
:1003E000220F331F11968C918370282B2083932F1B
:1003F000937081818C7F892B81830895FC01DB01BF
:100400008081908192959F708295880F880F807C63
:10041000892B8C938181880F11968C9311978281FF
:10042000880F12968C931297838113968C9313974F
:100430008481880F14968C9314978581880F880F78
:1004400015968C931597878117968C930895089528
:100450008093C321282F2F7030E04091C604509123
:10046000C7048823E4F464E8629FC001639F900D91
:1004700011248A5F9D4D8093BF219093C021C901B3
:1004800082959295907F9827807F982708969A0169
:10049000280F391F2093C1213093C221089564E8A9
:1004A000629FC001639F900D11248C539E4D8093D9
:1004B000BF219093C02122953295307F3227207F33
:1004C0003227240F351F2093C1213093C221089574
:1004D0001F93CF93DF93D82F162FC42FB9DFE0914E
:1004E000C121F091C2211182E091C121F091C2217C
:1004F000DD23A4F01082E091C121F091C22111838B
:10050000E091C121F091C221128213828091BF211A
:100510009091C0218483958340E014C082E0808361
:10052000E091C121F091C2211183E091C121F091AC
:10053000C221128213828091BF219091C0218483B5
:1005400095834C2FFC01E05CFF4F40833196108275
:1005500081E0DF91CF911F91089520E030E0A0EC81
:10056000B4E01696ED91FC911797C901829592958A
:10057000907F9827807F9827E80FF91F118616969D
:100580004D915C911797FA01E80FF91F11822F5FC7
:100590003F4F2530310529F708958091AB2480FF26
:1005A00004C088E38093440002C01092440080910C
:1005B000AB2483FF06C0E0E4F0E0848181608483A3
:1005C00005C0E0E4F0E08481836084836CD072D065
:1005D000E0ECF4E080818F77808380818068808385
:1005E0001092B6211092B2211092B4211092B32130
:1005F0008091AB2480FF04C080818F7B808305C005
:10060000E0ECF4E080818064808348E068E480E886
:100610005FDF48E068E480E05BDFE0ECF4E08085E9
:10062000806480878181816081830895CF93DF9387
:100630008093AB242FB7F894C0ECD1E082E08A8796
:10064000EAE1F0E0E491A0ECB4E0DA96EC93DA971A
:10065000EBE1F0E0E491DB96EC93DB971A8689E519
:1006600094E28E7F16968D939C93179784E18C93DA
:100670008091AB2482FF04C083E08093C8040BC048
:100680008091AB2481FF04C082E08093C80403C042
:1006900081E08093C8042FBF81E08093B5217DDF86
:1006A000DF91CF910895E0ECF4E08085837080873E
:1006B00011860895E0ECF4E08FEF82878487089537
:1006C0001F920F920FB60F9211242F933F934F93C7
:1006D0005F936F937F938F939F93AF93BF93EF93AA
:1006E000FF938091CA04882344F48091C80488232E
:1006F00024F480E88093CA04AADE8091CA0486FFAD
:1007000006C080E48093CA041092B621A0DE8091D6
:10071000CA0485FF15C080E28093CA048091B2218B
:10072000882321F084E08093B62109C08091C3041E
:10073000811102C081E001C083E08093B62187DE91
:100740008091CA0484FF14C0E0ECF4E080E1828769
:1007500082E08093B6211092B2211382FEDE48E03F
:1007600068E480E8B5DE48E068E480E0B1DE6FDE92
:10077000FF91EF91BF91AF919F918F917F916F9179
:100780005F914F913F912F910F900FBE0F901F904F
:100790001895E0ECF8E0928192838383828188232C
:1007A000ECF78091C30808951F93CF93DF93C0E4C3
:1007B000D6E010E11E8380ECECDF1D83DF91CF914A
:1007C0001F9108951F93CF93DF93C0E6D6E010E109
:1007D0001E8380ECDEDF1D83DF91CF911F91089592
:1007E0001F93CF93DF93C0E2D6E018E01E8380EC26
:1007F000D0DF1D83DF91CF911F9108951F93CF9379
:10080000DF93182FD62FC42F85E0C3DF812FC1DFE0
:100810008D2FBFDF8C2FBDDFDF91CF911F9108950A
:100820001F93CF93DF93213039F4C0E4D6E010E179
:100830001E83E4DF1D8311C0223039F4C0E6D6E008
:1008400010E11E83DBDF1D8308C0233031F4C0E2DA
:10085000D6E018E01E83D2DF1D83DF91CF911F9178
:1008600008951F93CF93DF93C0E4D6E010E11E8379
:10087000C5DF1D83DF91CF911F9108951F93CF9303
:10088000DF93C0E6D6E010E11E83B8DF1D83DF9161
:10089000CF911F9108951F93CF93DF93C0E2D6E0CD
:1008A00018E01E83ABDF1D83DF91CF911F91089568
:1008B000813039F018F0823039F0089581E869CF3D
:1008C000089582E866CF089584E863CF08951F9362
:1008D000CF93DF93C0E4D6E010E11E83E9DF1D83F0
:1008E000DF91CF911F9108951F93CF93DF93C0E6BF
:1008F000D6E010E11E83DCDF1D83DF91CF911F91D5
:1009000008951F93CF93DF93C0E2D6E018E01E83D3
:10091000CFDF1D83DF91CF911F9108950F931F9318
:10092000CF938B01880F805C34DFF8018081918147
:100930009695879596958795969587952ADFF801E0
:1009400080818295880F807E24DF80E022DF80E036
:1009500020DFF80182818F701CDFF80182818823FB
:1009600059F0C0E0F801EC0FF11D838112DFCF5F79
:10097000F8018281C817B0F3CF911F910F910895AC
:100980001F93CF93DF93C0E4D6E010E11E83C6DF50
:100990001D83DF91CF911F9108951F93CF93DF9314
:1009A000C0E6D6E010E11E83B9DF1D83DF91CF9151
:1009B0001F9108951F93CF93DF93C0E2D6E018E014
:1009C0001E83ACDF1D83DF91CF911F9108950F939C
:1009D0001F93CF93DF938B01DCDE80E0DADE98E0BB
:1009E000899FE001112480E0D4DE8295869587708E
:1009F000C82B80E0CEDE80E0CCDEF801C083D1835E
:100A000080E0C7DE8F70F8018283882361F0C0E048
:100A100080E0BFDEF801EC0FF11D8383CF5FF801AA
:100A20008281C817A8F381E0DF91CF911F910F91C8
:100A300008951F93CF93DF93C0E4D6E010E11E83A7
:100A4000C6DF1D83DF91CF911F9108951F93CF9330
:100A5000DF93C0E6D6E010E11E83B9DF1D83DF918E
:100A6000CF911F9108951F93CF93DF93C0E2D6E0FB
:100A700018E01E83ACDF1D83DF91CF911F91089595
:100A8000413011F4D6CF0895423011F4DFCF0895EC
:100A9000433011F4E8CF089580E008950F931F9339
:100AA000CF93DF93082FC0E4D6E010E11E8383E0EC
:100AB00070DE802F6EDE80E06CDE1D83DF91CF91D3
:100AC0001F910F9108950F931F93CF93DF93082FDA
:100AD000C0E6D6E010E11E8383E05BDE802F59DEA6
:100AE00080E057DE1D83DF91CF911F910F91089514
:100AF0000F931F93CF93DF93082FC0E2D6E018E047
:100B00001E8383E046DE802F44DE80E042DE1D83CC
:100B1000DF91CF911F910F910895613011F4BECFF5
:100B20000895623011F4CFCF0895E2CF0895FF9277
:100B30000F931F93CF93DF93F82E062FC0E4D6E0D8
:100B400010E11E8382E025DE8F2D23DE802F21DE43
:100B50001D83DF91CF911F910F91FF900895FF9218
:100B60000F931F93CF93DF93F82E062FC0E6D6E0A6
:100B700010E11E8382E00DDE8F2D0BDE802F09DE5B
:100B80001D83DF91CF911F910F91FF900895FF92E8
:100B90000F931F93CF93DF93F82E062FC0E2D6E07A
:100BA00018E01E8382E0F5DD8F2DF3DD802FF1DD6F
:100BB0001D83DF91CF911F910F91FF9008951F9397
:100BC000CF93DF93E0E4F6E090EA918390E49283A0
:100BD000A0E6B6E092E011969C931197909381065F
:100BE00098E0918320E1218311962C939093210624
:100BF00090ED9093C008662309F47EC0C82F80E171
:100C0000809345068093650688E0809325068FE1F2
:100C100093E00197F1F700C00000C6DDD3DDE0DD11
:100C20008FE39FE10197F1F700C000008FE036DF0E
:100C3000D82F8FE048DF182F8FE05ADFD295D69556
:100C4000D770D43009F05AC0129516951770143029
:100C500009F056C0829586958770843009F052C09D
:100C60008FE193E00197F1F700C0000060E08AE2B5
:100C70005EDF60E08AE273DF60E08AE288DF67EED1
:100C800089E255DF67EE89E26ADF67EE89E27FDF9E
:100C900061E088E24CDF61E088E261DF61E088E2E8
:100CA00076DF44E064E080E6DCDD44E064E080E69A
:100CB000E5DD44E064E080E6EEDD63EA8BE237DF09
:100CC00063EA8BE24CDF63EA8BE261DF4C2F60EE7C
:100CD0008FE0C7DD4C2F60EE8FE0D0DD4C2F60EE53
:100CE0008FE0D9DD82E0809366068093860688E0F7
:100CF0008093460681E007C081E005C080E003C024
:100D000080E001C080E0DF91CF911F9108954130D4
:100D100011F40DCF0895423011F421CF089537CF4B
:100D20000895CF93DF93E0E5F0E0808182608083D7
:100D3000818181FFFDCFA0E5B0E016968C911697DA
:100D4000846016968C931697C0E6D0E080E88D8379
:100D50008BEB8E8380EC91E022E0FC012287EDE1B9
:100D6000F0E0E491EA83ECE1F0E0E491EB83FC0154
:100D7000128681E08883E0E7F0E085E1808383E00C
:100D8000818394E5938393E5948390E595838093A1
:100D900021068BEC12968C9312978C9188608C9321
:100DA000E0E5F0E0818183FFFDCFE0E5F0E082EC5B
:100DB0008583808180618083818184FFFDCF88ED80
:100DC00084BF84E080934000E0E0FAE081E080832B
:100DD00093E1918321E030E020A731A726A337A338
:100DE0008093810693E090934906E0E6F6E02FE0D9
:100DF000218782872BE1208B30E23387258BE0E44B
:100E0000F8E0808320E83CE026A337A39683E0E067
:100E1000F8E0808320E03DE726A337A39683809304
:100E20002606C8E7D0E0888183FF04C061E080E047
:100E3000C6DE03C061E080E0C2DE81110AC0FFEFC0
:100E400029EF80E0F15020408040E1F700C0000031
:100E5000EACF25E888ED90E0A2EAB0E01BBEFD01F4
:100E600084BF20832BBE80E0E1DB93E088ED08B6F1
:100E700018BE84BF909380008091820081FDFCCFDA
:100E800008BE7894DF91CF91089510929F2110921F
:100E9000AA21089546DFFFCF1F920F920FB60F923F
:100EA00011242F933F934F935F936F937F938F936F
:100EB0009F93AF93BF93EF93FF93A89580913E20AC
:100EC00090913F20019780933E2090933F20809106
:100ED0003E2090913F20892BB9F482E08093260632
:100EE00088EE93E080933E2090933F2080914F20A6
:100EF00081110AC0809196218F5F80939621809105
:100F00009621823008F0C1DFFF91EF91BF91AF9140
:100F10009F918F917F916F915F914F913F912F9111
:100F20000F900FBE0F901F9018959091AF21809158
:100F3000B0219817F1F080E3B1DD83FD1AC0609114
:100F4000B02181E0860F8093B0218BE0689FB001D3
:100F5000112465567A4D80E013DD80E0B8DC909175
:100F6000B0218091AF21981304C01092AF2110924C
:100F7000B0210895EF92FF920F931F93CF93DF93C9
:100F8000CDB7DEB72B97CDBFDEBFE982FA820B83E8
:100F90001C832D833E834F83588769877A878B878D
:100FA000A091AF2181E08A0F8093AF219BE0A99FA0
:100FB000D0011124A556BA4D9BE0FE013196019057
:100FC0000D929A95E1F7803118F08FE08093AF2170
:100FD000ACDF2B96CDBFDEBFDF91CF911F910F917C
:100FE000FF90EF9008959091AD218091AE219817D8
:100FF000F1F080E368DD83FD1AC06091AE2181E0ED
:10100000860F8093AE218BE0689FB00111246D5153
:101010007B4D80E0C2DC80E067DC9091AE21809166
:10102000AD21981304C01092AD211092AE21089505
:10103000EF92FF920F931F93CF93DF93CDB7DEB75D
:101040002B97CDBFDEBFE982FA820B831C832D83F1
:101050003E834F83588769877A878B87A091AD211C
:1010600081E08A0F8093AD219BE0A99FD0011124DC
:10107000AD51BB4D9BE0FE01319601900D929A95CA
:10108000E1F7803118F08FE08093AD21ACDF2B9633
:10109000CDBFDEBFDF91CF911F910F91FF90EF90F9
:1010A00008959091AB218091AC219817F1F080E3E5
:1010B0001FDD83FD1AC06091AC2181E0860F809313
:1010C000AC218BE0689FB001112464557B4D80E01A
:1010D00071DC80E016DC9091AC218091AB219813FB
:1010E00004C01092AB211092AC2108951F920F9270
:1010F0000FB60F9211242F933F934F935F936F93EB
:101100007F938F939F93AF93BF93EF93FF930DDFE5
:101110006ADFC7DFFF91EF91BF91AF919F918F91F0
:101120007F916F915F914F913F912F910F900FBEE3
:101130000F901F901895EF92FF920F931F93CF93EC
:10114000DF93CDB7DEB72B97CDBFDEBFE982FA8242
:101150000B831C832D833E834F83588769877A874F
:101160008B87A091AB2181E08A0F8093AB219BE01C
:10117000A99FD0011124A455BB4D9BE0FE013196DF
:1011800001900D929A95E1F7803118F08FE08093ED
:10119000AB2187DF2B96CDBFDEBFDF91CF911F91B3
:1011A0000F91FF90EF900895CF92DF92EF92FF9210
:1011B0000F931F93CF93DF93CDB7DEB72B97CDBFA0
:1011C000DEBFC982DA82EB82FC820D831E832F830D
:1011D000388749875A876B87813069F4EC2CFD2C5E
:1011E0000B811C812D813E814F81588569857A85CF
:1011F0008B85C0DE1DC0823069F4E980FA800B81E6
:101200001C812D813E814F81588569857A858B852A
:101210000FDF0EC0833061F4E980FA800B811C81FE
:101220002D813E814F81588569857A858B8583DF45
:101230002B96CDBFDEBFDF91CF911F910F91FF9015
:10124000EF90DF90CF900895AF92BF92CF92DF9250
:10125000EF92FF920F931F93CF93DF93CDB7DEB73B
:101260002B97CDBFDEBFA82E682F8CE256DCB82EA0
:10127000837009F4BBC7B1FE0CC04A2DBE016F5F7D
:101280007F4F84E9FDDB2A2D40E062E08CE2C8DA82
:101290000BC04A2DBE016F5F7F4F80E9F1DB2A2D25
:1012A00040E061E08CE2BCDA89819A818B3025E0F4
:1012B000920709F42CC150F58D3EA1E09A0709F47C
:1012C0004EC078F48B3DE1E09E0709F483C08C3D6D
:1012D000F1E09F0709F4F5C08A3D914009F03FC74E
:1012E0004BC0843832E0930709F44EC028F4823FA3
:1012F000914009F4B0C633C78038E3E09E0709F493
:10130000D8C08A30954009F4C7C029C78C3B25E076
:10131000920709F4B8C178F48B35A5E09A0709F46F
:1013200074C18E39B5E09B0709F4BCC68C3095407A
:1013300009F015C7FEC08B3EF5E09F07A1F028F429
:10134000803C954009F409C60AC78330A6E09A0795
:1013500009F4D0C68C38964009F4CCC600C783E0A7
:101360008093B12125C78091B121833009F420C732
:1013700082E08093B1211CC780914F20811118C752
:101380008AE08093972114C7809194218F5F809386
:10139000942180919421823008F40AC710929421FC
:1013A00080914020C0906621D0906721E090682114
:1013B000F090692100916A2110916B2120916C219C
:1013C00030916D2140916E2150916F21609170217B
:1013D000EBDE54C7A09240208E818F3F31F4809184
:1013E000A92181608093A92105C08091A9218E7FC8
:1013F0008093A92180914F20811107C080919E2167
:10140000833019F48F8188628F8380914F208130DF
:1014100009F03DC04091A1215091A22128EE33E076
:10142000429FC001439F900D529F900D1124805503
:10143000934C64E873E0D3D76093A3217093A42105
:101440008091A3219091A421992324F41092A321A7
:101450001092A4218091A3219091A421893E9340D0
:1014600034F088EE93E08093A3219093A42180919F
:10147000A3219091A4216AE070E0C5D76093A321D5
:101480007093A4218091A3219091A4218887CE01FB
:1014900001960E941B01F2C68B81863019F41092CE
:1014A0004F2086C6883009F083C681E080934F20A4
:1014B0007FC680914020A81609F47AC610924F206A
:1014C00077C680919F2181110BC08FEF8C838D8314
:1014D0008E838F839FE1988789878CEF8A8709C0E5
:1014E00080919F21873028F48FEF8C838D838E83AA
:1014F0008F8380919F218F3F29F080919F218F5F63
:1015000080939F21CE0101960E941B01B7C68F8157
:10151000829586958695837080939E2180914F2039
:10152000811146C68E8182FB882780F980939B219A
:101530003FC6888580939D2180914020C09087215F
:10154000D0908821E0908921F0908A2100918B2110
:1015500010918C2120918D2130918E2140918F21ED
:1015600050919021609191211FDE80914020C09088
:101570007C21D0907D21E0907E21F0907F21009110
:1015800080211091812120918221309183214091ED
:101590008421509185216091862106DE8091402032
:1015A000C0900020D0900120E0900220F090032015
:1015B00000910420109105202091062030910720F1
:1015C000409108205091092060910A20EDDD809122
:1015D000932190E001966FE070E015D780939321FE
:1015E000809193218093052080919221882331F06E
:1015F0001092922188EC8093042040C681E0809371
:10160000922188EE8093042039C680919D21823BEF
:1016100019F48AEA8E8302C085E58E8380914F207B
:1016200081110DC080919B21811105C08A858F7C1D
:1016300080628A8704C08A858F7C80618A878C81DA
:1016400090E0880F991F880F991F2D81229526956C
:1016500026952370822B8093A1219093A221209123
:10166000A1213091A221ADECBCECE0D696958795F6
:1016700096958795969587958093A521CE0101969D
:101680000E941B01FBC58C818F3F51F08091A921E5
:101690008B7F8093A92180914F20811115C6C5C5EC
:1016A0008091A92184608093A92180914F20882373
:1016B00009F4BFC509C61885BE016C5F7F4F83E979
:1016C00095E20E94EA01A3E9B5E22C9144E955E2D2
:1016D000FA018081982F93702093362027E330E21F
:1016E000F90180818C7F892B80832C91DA018C9188
:1016F000982F93704EE250E2FA012083EFE2F0E27D
:1017000080818C7F892B80832AE330E2812F86952C
:10171000D9019C919078982B9C9322E330E2D901D7
:101720009C919078892B8C93DA018C912081922F57
:10173000937040E5489F9001499F300D11242093FC
:101740009821309399218F819DEC899F812D1124BF
:1017500082958F7080939521E0919521F0E0EE5B6A
:10176000FF4D80818F5F8093952180914120815032
:1017700080934120809141208111EFC280919C2172
:101780008A3009F4F3C030F4882359F0893009F421
:101790006DC096C2813109F47FC1823109F4FCC168
:1017A0008FC264E370E2FB0180818770806E80836A
:1017B000E5E3F0E28081887F8160808380818770AB
:1017C00080832CE330E2D9018C91869586958695AD
:1017D0004DE350E2DA019C919295990F907E892B0E
:1017E0009C91482F440F440F440FDB015C915770CC
:1017F000452B4C938295869587704081487F842B3A
:101800008083892F887F90819770892B8083809136
:101810009C21982F9F71EBE3F0E28295880F880F4F
:10182000807C40814F73842B8083892F8695869599
:10183000F9019081987F892B808380919C21982F3A
:101840009F71E3E3F0E28295880F880F807C20810E
:101850002F73822B8083892F869586959C91987F04
:10186000892B8C9389E080939C212AC24091A521E9
:101870002EEA31E0429FC001439F900D112464E69F
:1018800070E0C1D5C901861B970B9F71ACE3B0E234
:10189000282F220F220F220F3C913770232B2C93DD
:1018A000EDE3F0E28295869587702081287F822B78
:1018B0008083892F880F880F880F90819770892BDC
:1018C00080838C9186958695869590819295990FC7
:1018D000907E892B908164E370E2282F220F220FE3
:1018E000220FFB0130813770232B208325E330E268
:1018F000829586958770F9014081487F842B80838B
:10190000892F887F90819770892B808380919C217B
:10191000982F9F714BE350E28295880F880F807C4F
:10192000FA0120812F73822B8083892F86958695DB
:101930009C91987F892B8C9380919C21982F9F71EB
:10194000A3E3B0E28295880F880F807C2C912F73DF
:10195000822B8C93892F86958695DB019C91987FAD
:10196000892B8C938AE080939C21AAC18091A52128
:10197000813570F0ECE3F0E2808187708083EDE3E5
:10198000F0E28081887F80838081877080832BC094
:101990004091A52124E531E0429FC001439F900D75
:1019A000112464E670E02FD5C901861B970B9F7147
:1019B000ECE3F0E2282F220F220F220F3081377044
:1019C000232B2083EDE3F0E28295869587702081BA
:1019D000287F822B8083892F880F880F880F908122
:1019E0009770892B80836CE370E2FB018081869580
:1019F00086958695EDE3F0E290819295990F907E21
:101A0000892B9081E4E3F0E2282F220F220F220F8E
:101A100030813770232B208325E330E28295869531
:101A20008770D9014C91487F842B8C93892F887FB4
:101A30009C919770892B8C9380919C21982F9F71FA
:101A40004BE350E28295880F880F807CDA012C915D
:101A50002F73822B8C93892F86958695DB019C9121
:101A6000987F892B8C9380919C21982F9F71A3E361
:101A7000B0E28295880F880F807C2C912F73822B87
:101A80008C93892F869586959081987F892B80836A
:101A900081E180939C2114C14091A5212CEB32E07F
:101AA000429FC001439F900D112464E670E0ABD4C7
:101AB000C901861B970B9F71ACE3B0E2282F220F60
:101AC000220F220F3C913770232B2C93EDE3F0E291
:101AD0008295869587702081287F822B8083892F2D
:101AE000880F880F880F90819770892B80838C9145
:101AF00086958695869590819295990F907E892BF3
:101B0000908164E370E2282F220F220F220FFB0145
:101B100030813770232B208325E330E28295869530
:101B20008770F9014081487F842B8083892F887FCB
:101B300090819770892B808380919C21982F9F7131
:101B40004BE350E28295880F880F807CFA01208158
:101B50002F73822B8083892F869586959C91987F01
:101B6000892B8C9380919C21982F9F71A3E3B0E2E5
:101B70008295880F880F807C2C912F73822B8C93F9
:101B8000892F86958695DB019C91987F892B8C9374
:101B900082E180939C2194C08091A521813570F0D1
:101BA000ECE3F0E2808187708083EDE3F0E28081F6
:101BB000887F80838081877080832BC04091A5219E
:101BC00020E332E0429FC001439F900D112464E660
:101BD00070E019D4C901861B970B9F71ECE3F0E20A
:101BE000282F220F220F220F30813770232B2083C2
:101BF000EDE3F0E28295869587702081287F822B25
:101C00008083892F880F880F880F90819770892B88
:101C100080836CE370E2FB018081869586958695D2
:101C2000EDE3F0E290819295990F907E892B90815F
:101C3000E4E3F0E2282F220F220F220F30813770C9
:101C4000232B208325E330E2829586958770D90186
:101C50004C91487F842B8C93892F887F9C9197701F
:101C6000892B8C9380919C21982F9F714BE350E29C
:101C70008295880F880F807CDA012C912F73822B3C
:101C80008C93892F86958695DB019C91987F892B73
:101C90008C9380919C21982F9F71A3E3B0E2829551
:101CA000880F880F807C2C912F73822B8C93892F27
:101CB000869586959081987F892B808310929C21B0
:101CC00080919521809339208091952180933120B6
:101CD0008091B121882341F18091AA21803C21F596
:101CE0004091A5218CE291E0489F9001499F300DE1
:101CF00011243695279536952795ABE7B4E196D311
:101D00009695879580933620E7E3F0E2292F23709C
:101D100090819C7F922B908380932E20EFE2F0E2C3
:101D200080818C7F282B208380919A21882349F001
:101D30006EE070E286E390E20E944C0110929A21DC
:101D400009C06EE070E28EE290E20E944C0181E0F8
:101D500080939A2185E0809341208BE0EBE0F0E2D4
:101D6000DE01119601900D928A95E1F780914F2046
:101D7000813009F083C2898584FD10C02C8130E058
:101D8000220F331F220F331F9D81929596959695B2
:101D90009370292B2093A7213093A8212091A7216C
:101DA0003091A82136952795369527952C8320913B
:101DB000A7213091A8212295220F220F207C2D836C
:101DC0009F812DEC929F912D112492959F7090935D
:101DD0009521E0919521F0E0EE5BFF4D90819F5FB2
:101DE000909395212A858370880F880F880F922FF2
:101DF000929596959770892B80939C2180919C2138
:101E00008B30B1F128F4853069F08830E9F0A7C152
:101E1000853109F460C0883109F47EC0823109F04F
:101E20009EC13AC08091A521BEEB8B9FC0011124B9
:101E300064E670E0E8D28EEB90E0861B970B207E84
:101E4000922B9A878B871AC23091A521EEEAF1E096
:101E50003E9FC0013F9F900D112464E670E0D3D2F5
:101E6000E61BF70B822F807E8F2B8A87EB8706C2BB
:101E70003091A521ECEBF2E03E9FC0013F9F900D19
:101E8000112464E670E0BFD2E61BF70B822F807E40
:101E90008F2B8A87EB87F2C18091A5218035B8F41A
:101EA0004091A52150E04C5E5F4F36E9349FC00160
:101EB000359F900D112464E670E0A5D286E990E08C
:101EC000861B970B207E922B9A878B87D7C1207E0B
:101ED0002A871B86D3C18091A5218035C8F4409103
:101EE000A52150E04C5E5F4FE4E5F1E04E9FC0015C
:101EF0004F9F900D5E9F900D112464E670E083D299
:101F0000E61BF70B822F807E8F2B8A87EB87B6C16B
:101F1000207E2A871B86B2C18091A5218035C8F416
:101F20004091A52150E04C5E5F4FE0E3F2E04E9F10
:101F3000C0014F9F900D5E9F900D112464E670E0EC
:101F400062D2E61BF70B822F807E8F2B8A87EB876E
:101F500095C1207E2A871B8691C180914020C09028
:101F60007121D0907221E0907321F0907421009142
:101F7000752110917621209177213091782140911F
:101F8000792150917A2160917B210ED98091952100
:101F9000982F9F77E8E2F0E280818078892B808318
:101FA00080919521982F9F77E7E2F0E280818078F9
:101FB000892B808380919521982F9F77E0E2F0E232
:101FC00080818078892B808380919521982F9F77BD
:101FD000EFE1F0E280818078892B808380919521E8
:101FE000982F9F77E8E1F0E280818078892B8083C9
:101FF00080919521982F9F77E7E1F0E280818078AA
:10200000892B80838091A021811108C0BE016C5F63
:102010007F4F86E290E20E94FE0113C08091A021D2
:10202000813041F4BE016C5F7F4F8EE190E20E94EF
:10203000FE0107C0BE016C5F7F4F86E190E20E9407
:10204000FE018091A02190E0019663E070E0DBD179
:102050008093A02113C18E818093AA2180914F206B
:102060008111A6C01092962180919721882351F06A
:102070008091AA21803631F41E828091972181506F
:10208000809397218091B121823029F08091B121F4
:10209000833009F08DC080EA8F83CE0101960E94C3
:1020A0003101ECC080914F20813009F077C08EE083
:1020B0008E838091A521E6EE8E9FC001112464E6F7
:1020C00070E0A1D1CB0196958795929582958F70FE
:1020D00089279F7089278F7080668F838885877096
:1020E000660F660F660F682B6887CE0101960E9407
:1020F0001B01C4C00E94450780914020C0905B2115
:10210000D0905C21E0905D21F0905E2100915F21F4
:1021100010916021209161213091622140916321D1
:1021200050916421609165213FD880914020C090FA
:102130005021D0905121E0905221F09053210091F4
:1021400054211091552120915621309157214091D1
:1021500058215091592160915A2126D88FC08981E8
:102160009A81853CF5E09F0701F160F4883B33E0FC
:102170009307D9F08E39A5E09A0781F08535934011
:10218000B9F413C08532E6E09E0779F08333F6E0B8
:102190009F0759F08C3E954041F00AC090914F2026
:1021A00081E0992319F080E001C081E081111EC017
:1021B00031E0A3120EC0E980FA800B811C812D81D1
:1021C0003E814F81588569857A858B850E941808E4
:1021D0000DC0E980FA800B811C812D813E814F81E9
:1021E000588569857A858B850E94BA078B2D807A00
:1021F000C9F06A2D8DE20E948D05182F807C29F090
:102200004A2D60E08DE20E948706112319F082E0DA
:10221000809325066B2D607E29F02A2D40E08CE20C
:102220000E9410041092A62155C0898584FD9DCA84
:1022300042CA9FEF90933620E7E3F0E2808183600B
:10224000808390932E20EFE2F0E280818360808390
:10225000ECE3F0E2808187708083ADE3B0E28C91A3
:10226000887F8C938C9187708C93ABE3B0E28C91D8
:102270008F738C938081887F808377CA89819A81CC
:10228000853CA5E09A0709F4B1CF78F4883BE3E0F8
:102290009E0709F4ABCF8E39F5E09F0709F47ECF96
:1022A0008535934009F084CFA1CF853236E093077E
:1022B00009F49CCF8333A6E09A0709F497CF8C3EAC
:1022C000954009F493CF74CF80914F20813009F469
:1022D00052CD6ECF2B96CDBFDEBFDF91CF911F9138
:1022E0000F91FF90EF90DF90CF90BF90AF90089547
:1022F0001F920F920FB60F9211242F933F934F937B
:102300005F936F937F938F939F93AF93BF93EF935D
:10231000FF9381E08093A6210E942409FF91EF9111
:10232000BF91AF919F918F917F916F915F914F91ED
:102330003F912F910F900FBE0F901F9018951F92F5
:102340000F920FB60F9211242F933F934F935F93E9
:102350006F937F938F939F93AF93BF93EF93FF936D
:1023600081E08093A62182E00E942409FF91EF91F1
:10237000BF91AF919F918F917F916F915F914F919D
:102380003F912F910F900FBE0F901F9018951F92A5
:102390000F920FB60F9211242F933F934F935F9399
:1023A0006F937F938F939F93AF93BF93EF93FF931D
:1023B00081E08093A62183E00E942409FF91EF91A0
:1023C000BF91AF919F918F917F916F915F914F914D
:1023D0003F912F910F900FBE0F901F901895AA1B41
:1023E000BB1B51E107C0AA1FBB1FA617B70710F000
:1023F000A61BB70B881F991F5A95A9F78095909532
:10240000BC01CD01089597FB072E16F4009406D069
:1024100077FD08D0E4DF07FC05D03EF49095819568
:102420009F4F0895709561957F4F0895A29FB001C9
:10243000B39FC001A39F700D811D1124911DB29FF8
:0E244000700D811D1124911D0895F894FFCF99
:10244E00B803057FE80107FF000000BC0508000087
:10245E000000000000000340400002150000024092
:10246E0040000228000001424200023900002CC93F
:10247E00C032E36002002CC900326360020001002A
:10248E000201191C1F2225323F4C505255575A013A
:10249E0000858F0A9B1E1491B3363CB928ADA72236
:1024AE00E3666CE978FDF77250D5DF5ACB4E44C126
:1024BE0043C6CC49D85D57D2F0757FFA6BEEE46116
:1024CE00A0252FAA3BBEB43113969C19880D078206
:1024DE008603098C1D98921735B0BA3FAE2B21A4F6
:1024EE0065E0EA6FFE7B71F4D65359DC4DC8C247E6
:1024FE00C5404ACF5EDBD15476F3F97CED6862E7D6
:10250E0026A3A92CBD3832B795101A9F0E8B8104C5
:10251E00890C068312979D183ABFB530A1242EABB5
:10252E006AEFE560F1747EFBD95C56D342C7CD48A5
:10253E00CA4F45C051D4DE5B79FCF673E2676DE895
:10254E0029ACA623B2373DB89A1F159001848E0B85
:10255E000F8A800594111B9EBC3933B627A2A82D75
:10256E00EC6963E677F2F87D5FDAD055C4414BCE65
:10257E004CC9C346D75258DDFF7A70F564E1EB6E55
:10258E00AF2A20A534B1BB3E1C9993168702088D45
:10259E000706010000000000000000050601000013
:1025AE00000000000000550308140A1397100040A5
:1025BE0000EC05010000000000000000C505084009
:1025CE00012F5E000000002506060200FF1D200000
:0225DE000000FB
:00000001FF
