S31508000000800D0020ED01000881220008F520000877
S315080000107D220008E10400087123000800000000A2
S315080000200000000000000000000000006523000832
S315080000302D05000800000000852200086923000835
S31508000040070200080702000807020008070200085E
S31508000050070200080702000807020008070200084E
S31508000060070200080702000807020008070200083E
S31508000070070200080702000807020008070200082E
S31508000080070200080702000807020008FD04000826
S31508000090E5040008F1040008070200080702000842
S315080000A007020008070200080702000807020008FE
S315080000B007020008070200080702000807020008EE
S315080000C007020008070200080702000807020008DE
S315080000D007020008070200080702000807020008CE
S315080000E007020008070200080702000800000000CF
S315080000F000000000000000000000000000000000F2
S3150800010000000000000000000702000807020008BF
S31508000110070200080702000807020008070200088D
S31508000120070200080702000807020008070200087D
S315080001300702000800000000000000002105000872
S315080001400905000815050008070200080702000847
S3150800015000F002F800F03AF80AA090E8000C824491
S315080001608344AAF10107DA4501D100F02FF8AFF26E
S31508000170090EBAE80F0013F0010F18BFFB1A43F077
S3150800018001031847683E0000883E0000103A24BF65
S3150800019078C878C1FAD8520724BF30C830C144BFDE
S315080001A004680C6070470000002300240025002620
S315080001B0103A28BF78C1FBD8520728BF30C148BFBC
S315080001C00B6070471FB51FBD10B510BD00F026F9AE
S315080001D01146FFF7F7FF03F09BFC00F044F903B460
S315080001E0FFF7F2FF03BC00F04BF90000094880470F
S315080001F009480047FEE7FEE7FEE7FEE7FEE7FEE7FB
S31508000200FEE7FEE7FEE7FEE704480549054A064B12
S31508000210704700006D230008510100088007002080
S31508000220800D0020800900208009002053EA020C76
S3150800023000F069802DE9F04B4FF00006002B1FBF38
S31508000240B3FA83F503FA05F424FA05F65E4012BFFD
S315080002501643B2FA82F502FA05F4C5F120051EBF67
S3150800026022FA05FC44EA0C04203556EA044C4FEA07
S31508000270144418BF641C4FF000084FF00009904260
S3150800028071EB030C39D3002919BFB1FA81F701FACA
S3150800029007F6B0FA80F700FA07F6C7F120071EBF7F
S315080002A020FA07FC46EA0C062037B6FBF4FCA7EB57
S315080002B00507103F07F01F0BCBF120062CFA06F6B0
S315080002C00CFA0BFB44BFB3460026202FA4BF5E469C
S315080002D04FF0000B5BEA060C08BF4FF0010B19EB59
S315080002E00B0948EB0608ABFB027C06FB02CC0BFBB2
S315080002F003CCC01B71EB0C01C1E70B460246414615
S315080003004846BDE8F08B13B5084318BF4FF0FF30D9
S315080003100146AFF30080BDE81C40704740EA010380
S3150800032070B59B072ED14FF00136042A2AD308C888
S3150800033010C99D1B9D43121F15EAC61517D0D8B2C2
S31508000340E1B2401A50EA056110D198B2A1B2401A3A
S3150800035050EA05410AD123F07F4024F07F41401A34
S3150800036050EA052102D1180EA0EB146070BDA34215
S31508000370DBD018BA21BA884201D9012070BD4FF0E6
S31508000380FF3070BD0AB9002070BD10F8013B11F8A6
S31508000390014B63B1A3420AD1521E08D010F8013BA3
S315080003A011F8014B1BB1A34201D1521EEDD1181B06
S315080003B070BD10B5203AC0F00B80B1E81850A0E81F
S315080003C01850B1E81850A0E81850203ABFF4F5AF15
S315080003D05FEA027C24BFB1E81850A0E8185044BF71
S315080003E018C918C0BDE810405FEA827C24BF51F8DE
S315080003F0043B40F8043B08BF7047D20728BF31F8D2
S31508000400023B48BF11F8012B28BF20F8023B48BF22
S3150800041000F8012B7047704770477047754600F023
S315080004202BF8AE4605006946534620F00700854678
S3150800043018B020B5FFF7E8FEBDE820404FF00006EB
S315080004404FF000074FF000084FF0000BAC46ACE841
S31508000450C009ACE8C009ACE8C009ACE8C00921F09D
S3150800046007018D46704710B50446AFF30080204655
S31508000470BDE81040FFF7B3BE00487047F000002003
S3150800048001491820ABBEFEE72600020070470000AF
S3150800049010B58AB0044600200121CDE90500CDE952
S315080004A00000CDE902000490CDE9071109906946DC
S315080004B0204600F029F9002818BF00F039F8204630
S315080004C000F06EFE002818BF00F032F8204613210F
S315080004D000F0A4F8002818BF00F02AF80AB010BDEA
S315080004E0FEE7000040F2BC50C2F2000000F022BA5B
S315080004F040F2BC50C2F2000000F01CBA40F2BC50F8
S31508000500C2F2000000F016BA40F22060C2F2000003
S3150800051000F010BA40F22060C2F2000000F00ABAF9
S3150800052040F22060C2F2000000F004BA70470000F2
S31508000530EFF3108072B600BFFEE7000070B542F216
S315080005400C060446C4F2020601F076F93168C907BA
S3150800055018D13068800644BF202030603068C00655
S3150800056007D43069C00704D1306840075CBF002053
S3150800057070BD3068C00623D40020316849072BD4E3
S3150800058034E000BF002C47D00546601C0ED1306809
S31508000590C007DED03068C0071CBF30685FEAC0708D
S315080005A0D7D03068C007F2D1D3E700BF01F044F9CD
S315080005B0401BA04230D83068C007F7D1C9E700BF52
S315080005C040F25870C2F20000C16941F00201C161EF
S315080005D010203168490709D540F25871C2F2000166
S315080005E0CA6940F0040042F00102CA613169C907CC
S315080005F002D13060012070BD40F25871C2F200018C
S31508000600CA6942F00402CA61316921F00101316107
S315080006103060012070BD00BF032070BD90F8202017
S31508000620013A012A08D8006800F11402002013686C
S3150800063019431160704700BF00F1240201204FF4EE
S3150800064080211368194311607047000010B590F8AF
S3150800065020E0D0F800C0AEF1010EBEF1010FDCF8C3
S3150800066008E011D81EF0E05F18D0CEF3016EBEF197
S31508000670030F1DD100F1240101204FF400020B687D
S315080006801A430A6010BD00BF00F1240101204FF48F
S3150800069080220B681A430A6010BD00BF00F12401CE
S315080006A001204FF400120B681A430A6010BD00BF00
S315080006B0012000FA0EF01860886818B14B6840EA05
S315080006C0C30001E008684005D1E9033403430CEB95
S315080006D00E10C0F88031C0F88441097D012905D182
S315080006E000F5C2710B6843F480730B605168C0F85B
S315080006F08C11126800F5C071C0F88821002001220B
S315080007000B681A430A6010BDB0B590F82020013A6C
S31508000710012A2FD846F20060C4F20000026842F0AF
S3150800072001020260026822F47C520260D1F814E0E9
S31508000730CC694A6A0368012C43EA022202600EF079
S315080007401F024FF0010303FA02F2C3696FEA020CB3
S3150800075023EA0203C36113D02CBBC36803EA0C0364
S31508000760C360CB688C8844EA034300EBCE04236459
S315080007700B4611E0416A41F4802141620120B0BD77
S31508000780C3681343C3600B688C8844EA034300EBD1
S31508000790CE04236401F10C038C681B8843EA0443E6
S315080007A000EBCE04636443688D6943EA0204D1F81A
S315080007B010E0096A002D08BF03EA0C044460436987
S315080007C0BEF1000F43EA020408BF03EA0C0401293C
S315080007D0446102D1C1691143C161016821F0010177
S315080007E001600020B0BD00007047000010B590F809
S315080007F02040013C012C71D8D0F800C0002977D0E0
S31508000800DCF81040A40777D00CEB011CDCF8B041EB
S315080008100CF5D87E14F004049460DCF8B04119BFD6
S31508000820E4085460640D1460DEF80040002904F002
S315080008300204D460DCF8B44104F00F041461DCF857
S31508000840B441C4F307249461DCF8B4414FEA144474
S315080008505461DCF8B8211A70026802EB0112D2F86A
S31508000860B8214FEA12225A70026802EB0112D2F836
S31508000870B8214FEA12429A70026802EB0112D2F8C6
S31508000880B8214FEA1262DA70026802EB0112D2F856
S31508000890BC211A71026802EB0112D2F8BC214FEA98
S315080008A012225A71026802EB0112D2F8BC214FEAF1
S315080008B012429A71026802EB0112D2F8BC214FEA81
S315080008C01262DA71006814BF00F1100100F10C0120
S315080008D0002020220B681A430A6010BD00F124018B
S315080008E001204FF480220B681A430A6010BD00BF2E
S315080008F0DCF80C40A40787D100F1240101204FF44D
S3150800090000120B681A430A6010BD000090F8201008
S315080009100139012984BF0020704700688168826810
S315080009208068C1F38061C2F3C0621144C0F30070ED
S31508000930084470472DE9F04F81B0044600684669BF
S31508000940D0F804908768D0F80CB0D0F810A0D0F88A
S315080009501880F10704D1002530071FD426E000BF10
S31508000960F90712D00121BA07816009D4780700F186
S31508000970AB80380700F1B28004F1340002E000BF12
S3150800098004F128000168204688470025F80500F18B
S315080009908780F80300F1AB80300707D51BF01000FD
S315080009A004D0206845F400751021C160700708D589
S315080009B01BF0080005D02068616C0822C26020463A
S315080009C08847B00706D52068C068800702D0216C22
S315080009D020468847700607D51AF0100004D020680C
S315080009E045F4806510210161B00608D51AF00800A3
S315080009F005D02068E16C0822026120468847F00687
S31508000A0006D520680069800702D0A16C2046884771
S31508000A10B00308D519F0100005D02068216D102202
S31508000A20426020468847F00308D519F0080005D02B
S31508000A302068616D0822426020468847300440F1EC
S31508000A4091805FEA497040F18A8006F4807008EA6E
S31508000A50102028435FEA8871014648BF41F0020129
S31508000A60B20558BF01465FEA48700D4648BF45F0D3
S31508000A700405700558BF0D46300540F1708018F022
S31508000A8070006CD010380009052863D8DFE800F03C
S31508000A90045054585C6000BF45F008055AE000BF92
S31508000AA020684FF48071BA05816005D478050FD4A3
S31508000AB0380517D4A16B00E0E16A20468847F80399
S31508000AC07FF56AAF13E000BF4FF400655EE700BF2D
S31508000AD005F50055F8037FF55FAF08E04FF480553C
S31508000AE054E700BF05F58045F8037FF555AF206844
S31508000AF04FF48031BA03816006D478030CD43803E6
S31508000B0010D4E16B01E000BF216B2046884730070F
S31508000B103FF544AF4AE700BF05F5004530073FF506
S31508000B203DAF43E705F5803530073FF537AF3DE77D
S31508000B3045F010050EE000BF45F020050AE000BFAD
S31508000B4045F0400506E000BF45F0800502E000BF1D
S31508000B5045F480752068816921F0700181612068FB
S31508000B600421416055B1606AA16D40EA050220463C
S31508000B70626201B0BDE8F04F084700BF01B0BDE8AA
S31508000B80F08F00002DE9F041002861D0044690F866
S31508000B902000002849D141F28D1141F2012541F288
S31508000BA0092241F29118C0F60001C0F60005C0F608
S31508000BB0000241F2112341F20D20C0F60008C0F6EA
S31508000BC0000341F2FD1641F20527C0F60000C4E90C
S31508000BD00A5204F130026164E16D41F2991C41F256
S31508000BE0951EC0F60006C0F60007C8C2C4E90F087D
S31508000BF041F29D1041F2152240F2E973C0F6000C4D
S31508000C00C0F6000EC0F60000C0F60002C0F60003EB
S31508000C10C4E912CE20656265A36521B940F6115173
S31508000C20C0F60001E165204688472068016841F062
S31508000C300101016000F000FE054600BF206841681A
S31508000C40C90709D100F0F8FD401B0B28F6D314E0BC
S31508000C500120BDE8F08100BF016821F002010160B2
S31508000C6000F0EAFD054600BF2068416889070FD5F0
S31508000C7000F0E2FD401B0B28F6D3606A052140F41C
S31508000C8000306062012084F82010BDE8F08100BFC2
S31508000C90217E0268012922F0800208BF80320260A4
S31508000CA0617E0268012922F0400208BF40320260D4
S31508000CB0A17E0268012922F0200208BF20320260C4
S31508000CC0E17E0268012922F0100218BF1032026084
S31508000CD0217F0268012922F0080208BF0832026053
S31508000CE0617F0268012922F0040208BF043202600B
S31508000CF0271D8ECF66691A433A4332430139114399
S31508000D00C16100200121606284F82010BDE8F081ED
S31508000D1070B586B0006846F60001C4F20001884244
S31508000D204FF00001CDE90411CDE9021146D046F293
S31508000D300041C4F20001884240F0A58040F2B85153
S31508000D40C2F200010A6841F21C00C4F20200531CF8
S31508000D500B6042B9016841F000710160016801F059
S31508000D6000710191019950F8041C40F6000441F005
S31508000D70040140F8041C50F8040CC4F2010400F005
S31508000D800400019001984FF400600290002002AD23
S31508000D90CDE903002046294600F03EFC4FF480507A
S31508000DA0029002200390032005902046294600F071
S31508000DB033FC1525142413264DE000BF41F21C0010
S31508000DC0C4F20200016841F080610160016801F027
S31508000DD080610191019940F2B851C2F200010A6896
S31508000DE0531C0B6042B9016841F00071016001684B
S31508000DF001F000710191019950F8041C02AE41F00E
S31508000E00080140F8041C50F8040C314600F00800AC
S31508000E1001900198202002900020CDE9030040F6B9
S31508000E200000C4F2010000F58065284600F0F4FBD6
S31508000E300220039003204024059028463146029458
S31508000E4000F0EAFB0420C4F201000168412541F0E4
S31508000E50E8613F26016030460021002200F09CFD33
S31508000E60304600F089FD20460021002200F094FD5E
S31508000E70204600F081FD28460021002200F08CFD66
S31508000E80284600F079FD06B070BD0000BAB190F8AA
S31508000E902030012B10D10E2911D8DFE801F00923E3
S31508000EA0272B2F33373B3F43474B4F1B1F0000BFB2
S31508000EB082620020704700BF90F8203033B1416A43
S31508000EC041F4800141620120704700BF0E2905D018
S31508000ED00D29F4D1C2650020704700BF02660020C4
S31508000EE0704700BFC2620020704700BF026300203F
S31508000EF0704700BF42630020704700BF826300202E
S31508000F00704700BFC2630020704700BF026400201C
S31508000F10704700BF42640020704700BF826400200B
S31508000F20704700BFC2640020704700BF02650020FA
S31508000F30704700BF42650020704700BF82650020E9
S31508000F407047000070B58CB005AC03AB0021224693
S31508000F50FFF74CFCDDE90760042E08BF043425685A
S31508000F609DF82440022801D1012006E024B16846F4
S31508000F7003A92246FFF71DFA002040F27011C2F2BB
S31508000F8000018A788B79013202F00F029A421DD04D
S31508000F90321F8B7840F2B816B2FA82F2C2F2000615
S31508000FA0520906EB031383F8052283F80602DDE9E6
S31508000FB00020C3F8005283F80442C3F80C02C3F8B1
S31508000FC008228878013000F00F008870002002F0AF
S31508000FD0E3FE0CB070BD000070B58CB005AC03AB79
S31508000FE000212246FFF702FCDDE90760042E08BF50
S31508000FF0043425689DF82440022801D1012006E022
S3150800100024B1684603A92246FFF7D3F9002040F227
S315080010107011C2F20001CA78CB79013202F00F02D0
S315080010209A421DD0321FCB7840F2B816B2FA82F235
S31508001030C2F20006520906EB031383F8052383F868
S315080010400603DDE90020C3F8005383F80443C3F818
S315080010500C03C3F80823C878013000F00F00C870E5
S31508001060012002F099FE0CB070BD0000F0B58BB0FF
S3150800107004AC02AB012122460127FFF7B7FBDDE9E5
S315080010800660042E08BF043425689DF8204002280F
S3150800109006D024B1684602A92246FFF78AF9002736
S315080010A040F27010C2F2000081788279013101F0B5
S315080010B00F0191421DD0311F827840F2B813B1FA60
S315080010C081F1C2F20003490903EB021282F8051204
S315080010D0DDE90031C2F8005282F8044282F806724D
S315080010E0C2F80C12C2F808328178013101F00F01FA
S315080010F08170002002F050FE0BB0F0BDF0B58BB049
S3150800110004AC02AB012122460127FFF76FFBDDE99C
S315080011100660042E08BF043425689DF8204002287E
S3150800112006D024B1684602A92246FFF742F90027ED
S3150800113040F27010C2F20000C178C279013101F0A4
S315080011400F0191421DD0311FC27840F2B813B1FA8F
S3150800115081F1C2F20003490903EB021282F8051372
S31508001160DDE90031C2F8005382F8044382F80673B9
S31508001170C2F80C13C2F80833C178013101F00F0127
S31508001180C170012002F008FE0BB0F0BD70470000E8
S315080011907047000070470000704700007047000065
S315080011A0B0B5044690F8200001281DD1022084F825
S315080011B020002068016821F00101016000F03CFB75
S315080011C0054600BF20684068C00713D000F034FB0E
S315080011D0401B0B28F6D3606A40F400306062052095
S315080011E084F820000120B0BD606A40F400206062E7
S315080011F00120B0BD00206062B0BD0000704700004D
S3150800120070470000704700007047000070470000F4
S315080012107047000070470000F0B581B042F2100434
S31508001220C4F20204E5684CF25030FFF787F908B1BA
S3150800123001B0F0BD40F25876C2F200060020F06117
S31508001240206840F020002060206840F040002060C0
S315080012504CF25030FFF772F92168002821F020017E
S315080012602160E5D14CF25030FFF768F90028DFD14C
S315080012700027F761206840F020002060206840F0D1
S31508001280400020604CF25030FFF758F921680028DA
S3150800129021F020012160CBD1206815F0020140F031
S315080012A0100008BFA52720604FF60000C1F6FF70A2
S315080012B007804CF25030FFF741F9216821F0100100
S315080012C0216001B0F0BD00000721016042F21C0157
S315080012D0C4F202014A6882600A6892074FF0000267
S315080012E058BF6FF05A0202740968C1F3820141744B
S315080012F0704700002DE9F04381B040F25875C2F2FC
S315080013000005297E012903D1022001B0BDE8F0833A
S31508001310016804460120CA07287629D18A0700F100
S31508001320DF804A0700F11281090740F135816669B5
S31508001330247E4CF25030FFF701F9002840F02C814A
S31508001340002042F21007E861C4F20207386840F04C
S31508001350100038604CF250303480FFF7EFF83968E7
S31508001360002821F01001396008BF002014E100BFF1
S3150800137042F21009C4F20209D4E90107D9F810604B
S3150800138001281FD14CF25030FFF7D8F8002840F05A
S3150800139003810020E861FFF73FFF002840F0FC804A
S315080013A026EA0707D9F80010F8B24FF60808C1F67A
S315080013B0FF7841F01001FF28C9F8001020D100205D
S315080013C027E000BF4CF25030FFF7B8F8002840F08D
S315080013D0E3800020E861FFF71FFF002840F0DC806B
S315080013E03743D9F80010F8B24FF60808C1F6FF7867
S315080013F041F01001FF28C9F800102FD1002036E06F
S31508001400B8F800100840A8F800004CF25030FFF772
S3150800141095F860B9390AC9B2FF2908D0B8F80200A8
S315080014200840A8F802004CF25030FFF787F860B978
S31508001430C7F30741FF2908D0B8F804000840A8F800
S3150800144004004CF25030FFF779F8E0BB390EFF295B
S3150800145039D0B8F8060008402CE000BFB8F80010EC
S315080014600843A8F800004CF25030FFF767F860B957
S31508001470390AC9B2FF2908D0B8F802000843A8F803
S3150800148002004CF25030FFF759F860B9C7F307412C
S31508001490FF2908D0B8F804000843A8F804004CF25D
S315080014A05030FFF74BF870B9390EFF290BD0B8F852
S315080014B0060008434FF60801C1F6FF71C8804CF2D2
S315080014C05030FFF73BF8D9F80010002821F010013A
S315080014D0C9F8001060D1216800208A077FF521AF7E
S315080014E0267C4CF25030FFF729F8002854D142F2F6
S315080014F010070020C4F20207E861386840F02000AF
S315080015003860386840F0400038604CF25030FFF7D9
S3150800151015F8396821F020013960E8BB386840F0D1
S31508001520100038604FF60800C1F6FF7020F8086C06
S315080015304CF25030FFF702F8396821F01001396093
S3150800154050BB216800204A077FF5EEAE667C4CF258
S315080015505030FEF7F3FFF8B9002042F21007E861B1
S31508001560C4F2020738684FF6080140F010003860E8
S3150800157046F08800C1F6FF7121F8060C4CF250308F
S31508001580FEF7DCFF396821F01001396020B92168BF
S31508001590002009073FF5CBAE0021297601B0BDE84A
S315080015A0F083000000F034BA42F21001C4F20201DE
S315080015B0086820F4007200200A60704742F20800AA
S315080015C0C4F202008168890544BF0120704740F2D1
S315080015D02311C4F26751016048F6AB11CCF6EF51FE
S315080015E0016000207047000042F20400C4F20200C5
S315080015F0C16809065CBF0020704740F22311C4F297
S315080016006751016048F6AB11CCF6EF510160C0682E
S31508001610C0B2C009704700002DE9F04F82B041F210
S315080016200042C4F201020E680423904208BF032355
S31508001630002E009300F0F68040F20C4E4FF6FF7C29
S31508001640C4F2010E00220124C1F2100C4FF0000A68
S315080016504FF0000943E000BF012502F00C040F27F4
S31508001660A7402BEA070705FA04F43C4343F826404B
S31508001670D1F804B040F20045C4F201055FEACB3365
S315080016802B6854BF23EA080343EA08032B606B68F8
S315080016905FEA8B3454BF23EA080343EA08036B6006
S315080016A05FEACB24AB6854BF23EA080343EA08037E
S315080016B05FEA8B24AB60DEF800304FF0010454BFBC
S315080016C023EA080343EA0803CEF800300E680AF155
S315080016D0010A36FA0AF302F1040200F0A38004FABA
S315080016E00AF816EA080FF1D04B68634512DC122B8C
S315080016F056D8DFE803F0350B454955555555555528
S31508001700555555555555554D510000BFD1F80C90B6
S3150800171046E000BF4FF6FF77C1F22107BB420FDC58
S315080017200027C1F21107BB421AD00027C1F21207DF
S31508001730BB4215D00027C1F22107BB4210D02FE0CB
S315080017400027C1F22207BB420AD00027C1F231079F
S31508001750BB4205D00027C1F23207BB4220D100BFE9
S315080017608B684BB1012B14BFC0F81480C0F81080E9
S315080017704FF0080914E000BF4FF0040910E000BF5D
S31508001780CB6803F108090BE04FF0000908E000BF39
S31508001790CB6803F1040903E0CB6803F10C0900BF29
S315080017A013460546BAF1080F24BF203B04352E68B8
S315080017B00F279F40BE4309FA03F333432B60CB79C7
S315080017C0DB067FF583AF41F21804C4F202042368EE
S315080017D04FEA9A0643F001032360236840F60004A3
S315080017E003F001030193019B40F20043C4F2010395
S315080017F0A3F57E7353F826B0C4F20104A0420FD0B5
S3150800180040F60044C4F20104A0423FF425AF41F279
S315080018100004C4F20104009DA04208BF02251CE78B
S3150800182000251AE702B0BDE8F08F0000806808407E
S3150800183018BF01207047000040F27870C2F200001D
S3150800184000687047B0B538B304460068D4E9011299
S315080018504CF6CC43036045F2555303604160826001
S31508001860FFF7EAFF2168CA6892070FD0054602E02B
S31508001870C86880070AD0FFF7DFFF401B21682828C1
S31508001880F6D3C8688007F3D00320B0BD4AF6AA206D
S3150800189008600020B0BD00BF0120B0BD01684AF64F
S315080018A0AA2200200A60704740F2740040F278715C
S315080018B0C2F20000C2F2000100780A68104408600B
S315080018C07047000080B542F20000C4F202000168C9
S315080018D041F010010160032000F08AF8002000F0B2
S315080018E005F800F027F8002080BD000070B540F22A
S315080018F07406C2F2000640F2EC013278C2F2000128
S315080019004FF47A730968B3FBF2F20446B1FBF2F1BD
S31508001910084600F0D9FB0F2C4FF0010508D838B956
S315080019204FF0FF3021460022002500F035F874609C
S31508001930284670BD82B041F21800C4F20200016860
S31508001940022241F001010160016801F001010191E3
S315080019500199416841F080514160406800F080502B
S31508001960009000980420C4F20100016862F31A612D
S31508001970016002B070470000002848BF704700F0B9
S315080019801F01012202FA01F14EF200124009CEF2BD
S31508001990000242F82010704710B54EF60C5CCEF2E5
S315080019A0000CDCF80030C3F3022E8EF00704042C7A
S315080019B028BF0424BEF103034FF0FF3E0EFA04F4D9
S315080019C038BF0023A14399400EFA03F39A43114303
S315080019D000F00F02043A624409010C3200F1604338
S315080019E0B0F1FF3FC8BF03F56442117010BD000097
S315080019F04EF60C51CEF200010A684FF6FF031A4064
S31508001A0060F30A2242F0806040F0FD70086070477B
S31508001A1000F0C6FC2DE9F04381B0002800F087806D
S31508001A2042F20008C4F202080446D8F800000D463F
S31508001A3000F0070088420CD2D8F8000020F0070012
S31508001A402843C8F80000D8F8000000F00700A842AC
S31508001A506DD1206841F204098107C4F2020917D53D
S31508001A60410705D5D9F8001041F4E061C9F800101E
S31508001A70010705D5D9F8001041F46051C9F80010DE
S31508001A80D9F80010A26821F0F0011143C9F8001036
S31508001A90C00743D1D8F8000000F00700A8420CD9C7
S31508001AA0D8F8000020F007002843C8F80000D8F846
S31508001AB0000000F00700A84239D12068410707D581
S31508001AC0D9F80010E26821F4E0611143C9F8001062
S31508001AD0000708D5D9F80000216920F4605040EACB
S31508001AE0C100C9F80000D9F8002047F6400002F006
S31508001AF00C010429C0F27D1079D0082944D143F697
S31508001B006C61C2F38344C0F60001095DD20341D477
S31508001B1040F60010C0F23D00484368E060680228BD
S31508001B200AD001282AD159F8041C890308D40120AF
S31508001B3001B0BDE8F08300BF59F8041C8901F6D549
S31508001B40D9F8001021F003010843C9F80000FFF78F
S31508001B5073FE064641F28837D9F80000616800F03E
S31508001B600C00B0EB810F95D0FFF766FE801BB842DC
S31508001B70F2D9032001B0BDE8F08300BF59F8041C70
S31508001B808907D4D5DCE700BF41F20020C0F27A000D
S31508001B902DE000BFD9F8282043F6CE7302F00F02D5
S31508001BA0C0F60003D9F828709A5CFB0304D44843AE
S31508001BB0B0FBF2F015E000BFD9F82830D9F8287044
S31508001BC04FF28006C7F30327C0F2FA26C3F30313BE
S31508001BD007FB00600133A0FB0101A3FB0223FEF70C
S31508001BE025FBA4F10D01B1FA81F14909C840D9F8DC
S31508001BF0001043F67A62C1F30311C0F60002515C85
S31508001C0040F2EC0220FA01F140F27800C2F200003C
S31508001C100068C2F200021160FFF768FE002001B0FA
S31508001C20BDE8F0832DE9F04182B0002800F0FE817E
S31508001C300446007841F20006C007C4F202060CD03A
S31508001C40706800F00C00042840F09E80306880031D
S31508001C5003D5A068002800F0E981207880071BD505
S31508001C60706810F00C0F09D0706800F00C00082896
S31508001C7040F0A8807068C00300F1A480306880072F
S31508001C8003D56069012840F0D1813068A16920F048
S31508001C90F80040EAC10030602078000736D4207882
S31508001CA040074BD4E06A002800F0A8817168C90390
S31508001CB008D5716801F00C01082903D1F16AC90336
S31508001CC000F1B481022840F0E5803068C00006D5EE
S31508001CD0F06A616B00F0F000884240F0A78168273F
S31508001CE0C4F2422700203860FFF7A6FD054600BF6C
S31508001CF03068000140F16481FFF79EFD401B6428AF
S31508001D004FF00300F4D902B0BDE8F081E06900287D
S31508001D1000F082806820C4F242200121C0F818141D
S31508001D20FFF78AFD054600BF706A800700F18880C4
S31508001D30FFF782FD401B0228F6D93CE1F06910F056
S31508001D40805808D1F06940F08050F061F06900F0E1
S31508001D5080500090009847F20007C4F200073868E0
S31508001D60C00547D4386840F480703860FFF764FDD2
S31508001D70054600BF3868C0053CD4FFF75DFD401B2B
S31508001D806428F7D917E100BF706800F00C0008282E
S31508001D9003D17068C0033FF559AFA068002800F06A
S31508001DA0DD80B0F5A02F00F0F180B0F5803F00F09F
S31508001DB0F180306820F480303060306820F480206C
S31508001DC0EBE000BF6069002840F26800C4F24220D8
S31508001DD076D0012140F8681CFFF72EFD054600BFA6
S31508001DE0306880073FF551AFFFF726FD401B0228F4
S31508001DF0F6D9E0E02069002874D0052800F08C8028
S31508001E00012800F08D80306A20F001003062306AC7
S31508001E1020F0040087E000BF6820C4F242200021B9
S31508001E20C0F81814FFF708FD054600BF706A80075A
S31508001E307FF535AFFFF700FD401B0228F6D9BAE05B
S31508001E4040F2EC00C2F20000006844F6D351C1F239
S31508001E506201A0FB0101480A019000BF00BF01987A
S31508001E60411E002801913FF41AAF00BF0198411E98
S31508001E70002801913FF413AF00BF0198411E0028C6
S31508001E8001913FF40CAF00BF0198411E0028019153
S31508001E90E4D104E7F06A002120F48030F06268207B
S31508001EA0C4F242200160FFF7C7FC0546306800010E
S31508001EB040F1A480FFF7C0FC401B6428F6D97AE0FD
S31508001EC0002140F8681CFFF7B7FC05463068800714
S31508001ED07FF5E2AEFFF7B0FC401B02284FF0030087
S31508001EE0F4D910E7306A20F001003062306A20F039
S31508001EF004003062FFF7A0FC054641F2883700BFB0
S31508001F00306A800720D5FFF797FC401BB8424FF090
S31508001F100300F5D9F7E600BF306A40F004003062E6
S31508001F20306A40F001003062FFF786FC054641F250
S31508001F30883700BF306A800706D4FFF77DFC401B50
S31508001F40B842F7D937E000BFB8F1000F7FF4AAAE60
S31508001F50F06920F08050F061A4E600BF306820F4F4
S31508001F6080303060306820F480203060FFF764FCF1
S31508001F70054600BF306880037FF56FAEFFF75CFC4F
S31508001F80401B64284FF00300F4D9BCE6306840F4DF
S31508001F9080203060306840F480303060FFF74CFCB9
S31508001FA0054600BF306880033FF557AEFFF744FC8F
S31508001FB0401B6428F6D9032002B0BDE8F08100BFB3
S31508001FC0F06AD4E90C2120F0F0000843F062F06AC8
S31508001FD020F470601043F06201203860FFF72CFC93
S31508001FE0054600BF3068000108D4FFF725FC401BF2
S31508001FF064284FF00300F5D985E600BF256A8DB140
S31508002000706800F00C00082814D1012D0ED07068F5
S31508002010616A00F480328A4208D1A16A00F470101D
S31508002020884203D1002002B0BDE8F081012002B049
S31508002030BDE8F0816827C4F24227002047F8080C5B
S31508002040FFF7FAFB022D05460CD100BF3068800168
S3150800205014D5FFF7F1FB401B02284FF00300F5D912
S3150800206051E600BF30688001DCD5FFF7E5FB401B71
S3150800207002284FF00300F5D945E600BF606AB0F5BF
S31508002080803F09D1F16A6268E3681143F162F16A37
S3150800209021F00F011943F1627168A26A21F47411E3
S315080020A0104308437060012047F8080CFFF7C4FB8B
S315080020B0044630688001B5D4FFF7BEFB001B022832
S315080020C04FF00300F5D91EE6411E0020B0EB116F54
S315080020D01CBF012070474EF21002CEF2000251607A
S315080020E04EF62351CEF20001F0230B7007219060C3
S315080020F011607047FEE7000040F27012C2F200025B
S3150800210002EB41021118125C084610F8043F9A4285
S3150800211002BF0020C0B270470A7803789A4205D9F0
S3150800212009780078081AC0B2704700BF00780978A5
S31508002130081A1030C0B2704710B540F2BC5046F2CB
S315080021400041C2F20000C4F20001042200234FF04D
S31508002150012480E80E0000F10C014FF4602C4FF4C6
S31508002160801E81E8085084618383FEF70BFD0028F2
S3150800217008BF10BDBDE81040FEF7DAB910B540F249
S31508002180206046F60001C2F20000C4F200010422F3
S3150800219000234FF0012480E80E0000F10C014FF4F3
S315080021A0602C4FF4801E81E8085084618383FEF713
S315080021B0E9FC002808BF10BDBDE81040FEF7B8B915
S315080021C0F0B585B0002641F218000496C4F2020064
S315080021D0016840F6000441F0200101600168C4F27C
S315080021E0010401F0200100910099016801AD41F058
S315080021F0040101600168012701F0040100910099BA
S31508002200016841F010010160016801F010010091B8
S315080022100099016841F0080101600068294600F04C
S315080022200800009000984FF40040CDE901062046CA
S315080022300397FFF7F1F94FF4E05001A9C1C104F57E
S3150800224000602946FFF7E8F905B0F0BD80B540F211
S31508002250846043F20001C2F20000C4F200010022C9
S3150800226040F6FF7380E80E00FFF7ECFA002808BF77
S3150800227080BDBDE88040FEF75BB90000FEE70000C0
S31508002280FEE700007047000080B540F27013C2F206
S31508002290000303EB410303EB000C1CF804EF1B5C83
S315080022A09E4504BF022080BD40F2B8139CF800E0AA
S315080022B0C2F2000303EB412101EB00204FEA0E11A5
S315080022C0415800EB0E10116041688368C068516080
S315080022D09360D0609CF80000013000F00F008CF885
S315080022E00000002080BD0000B0B5012884BF03208F
S315080022F0B0BD40F27013C2F2000303EB41031C5C4D
S3150800230003EB000C01349CF8043004F00F049C42E3
S3150800231004D1012401F040FD2046B0BD40F2B814B6
S31508002320C2F200049CF8003004EB412101EB0021C5
S3150800233001EB03144FEA031E1368556841F80E3083
S3150800234065609168D268A160E2609CF8001000247C
S31508002350013101F00F018CF8001001F01DFD204637
S31508002360B0BD000070470000FFF79EBA7047000036
S31508002370FEE700004EF60C50BFF34F8FCEF200007A
S315080023800168042201F4E061C0F2FA5211430160C7
S31508002390BFF34F8F00BF00BF00BF00BFFAE70000C2
S315080023A04EF60C50BFF34F8FCEF2000001680422A0
S315080023B001F4E061C0F2FA5211430160BFF34F8F96
S315080023C000BF00BF00BF00BFFAE70000B0B540F28B
S315080023D07811C2F200018B7A00F1080212F803C0E4
S315080023E08B7AD35C03F00F0E8B7A0EEB1C1C12F85B
S315080023F003E08B7A0CEB1E1C12F803E08B7A0EF0C6
S315080024000F0ED55C8C7A0CEB0E03145D03EB1513DB
S3150800241004F00F058C7A2B44155D8C7A03EB151C9A
S31508002420155D8C7A05F00F05145D8B7A6544D35CCF
S3150800243005EB14158C7A03F00F032B44155D8C7A83
S3150800244003EB1513155D8C7A2B44155D897A03EB1E
S315080024501513515CC27B1944023102F0F00201F0F7
S315080024600F011144C173B0BD2DE9F04381B00C468C
S31508002470096840F20B529142804641DCB1F5217F52
S3150800248080F2CA80A1F5EA701E2800F2A581DFE86D
S3150800249010F01F00760A760A760A760A760ACB01C3
S315080024A0DB016F02760A760A760A760A760A760AD1
S315080024B0760A760A760A760A760A760A760A760A0E
S315080024C0760A760A9B02760A760A760A760AA302BC
S315080024D040F27810C2F200000179202903D0017970
S315080024E0C02940F05584A17B602940F05284417B85
S315080024F0E02904BF0121C170602100F04ABC00BF79
S31508002500B1F5B86F14DB40F28B60814200F39A8014
S31508002510B1F5B86F00F0888240F2EB50814200F0C6
S31508002520EB8240F20360814200F0308101F027BA65
S3150800253040F25A50814240F3DF8040F25B508142BC
S3150800254000F0E68240F29E50814200F0258340F278
S31508002550BC50814241F01382617B227AC80600F1A1
S31508002560BB83FF2A00F0BA8340F27810C2F200005B
S31508002570037C03F0FB03037440F20003C2F200037A
S315080025801F78002F41F01281617A40F2FF3601F080
S31508002590030141EA820150F8382F277BB2431144E0
S315080025A00160D0E90012D3E9046261F30906C3E9C0
S315080025B00462D0E90012D3E9066261F30906C3E9A9
S315080025C00662D3E9041222F07F0242EA5702C3E9FF
S315080025D00412D3E9061222F07F0242EA5702C3E93F
S315080025E00612E17ACD225143090B00F8191C10F89E
S315080025F0191C43F6DE7283F83D1010F8191CC0F654
S315080026000002515C013100F8191C10F8190C83F806
S315080026103E0000F0FBBB00BF40F20950814200F3C8
S315080026209180B1F5217F00F0F382B1F5607F41F02A
S31508002630A68140F20000C2F200008178414501F00F
S31508002640DE8145E340F28C60814200F09F8040F2D3
S315080026509B70814200F0F28240F2BB70814241F0E9
S315080026608E8140F27816C2F200063079202803D00F
S315080026703079C02841F08281217A102908D10020BA
S3150800268086F82500E07A02281CBF012086F8250076
S3150800269096F82500002841F07181307B70B940F228
S315080026A00000C2F2000040F27C018078C2F200010C
S315080026B001F160020021FFF717FE217A102940F088
S315080026C02984002086F82600A08996F8261000BAE4
S315080026D04A1C86F8262040F29062000CC2F20002DC
S315080026E022F81100E08996F8261000BA4B1C000C57
S315080026F086F8263000F0D5BD40F20C50814200F035
S31508002700A58240F24B50814241F0398140F278105F
S31508002710C2F20000E37A217B0279CF08C02A40F092
S31508002720BF83072F00F0BA83062F40F0B983012133
S3150800273001720179A3F10901B1FA81F1490900226F
S31508002740C3E300BF40F20A50814200F0B78240F26C
S315080027500B50814241F01381E07A40F278118009EA
S31508002760C2F20001487440F20000C2F2000002788A
S315080027701AB9A27AC2F38002CA76497C002941F0C6
S31508002780FD80002180F83C1001F0F8B840F278107E
S3150800279040F20005C2F200000021C2F20005012243
S315080027A041708170C170017185F83C204171817159
S315080027B0C17101724172A87805F164020021FFF720
S315080027C093FDA87840F27C02C2F200020021FFF7CE
S315080027D08BFD01F0D3B800BFB1F58D7F41F0CF80F6
S315080027E0207A617A00F0F00240F27810C2F2000016
S315080027F0C1F30011427181768179402910D141795E
S3150800280030290DD1C1790423B1FA81F25209002980
S315080028104FF0140108BF0223C271C17480F8223038
S315080028204179817101F0AAB840F20000C2F20000B5
S315080028300078002841F0E38040F27810C2F20000E8
S315080028400A21817301F09AB840F20002C2F200022E
S3150800285082F80280A07AE17A830043EA911640F270
S315080028607813C2F200031E631E6BA0F1FF077608F9
S3150800287016871E7CB7FA87F77F0906F0FE063744E7
S315080028801F7417788FBB5F7C032F02BF01F0C0014E
S315080028902A31E1721F7C47B91F79202F05D19F7C09
S315080028A0D678B74224BF01279F701F79202F05D1FC
S315080028B01F6BB7F54B7F84BF01279F70677AA67B8E
S315080028C027F01F07002506F003066772A581A67381
S315080028D09E7856B147F00207677241F010018527C6
S315080028E0E172178140F2E24757811778012F33D1F9
S315080028F05F7C032F02BF01F0C0012A31E1721F7C01
S3150800290047B91F79202F05D19F7CD678B74224BFB7
S3150800291001279F701F79202F05D11F6BB7F54A7FB6
S3150800292084BF01279F70677A27F01F0767729E7C0E
S31508002930A57B26730026667305F00306A6739E78A4
S3150800294056B147F00207677241F010018527E17218
S31508002950178140F2E2475781DF7C17B1D278013AF6
S3150800296022731A7D002A00F0CB815A7D2273C8E1B2
S31508002970217A40F2781CC2F2000C8CF81610627AA2
S315080029808CF81720A37A8CF81830E37A8CF819306B
S31508002990A1F1FF039CF81070B3FA83F35B0907F003
S315080029A0FD0747EA43038CF810309CF80130002BEA
S315080029B000F0C0819CF80130062B00F2D9814FF057
S315080029C0FF31A160BEE100BF40F27810C2F20000FC
S315080029D00321017001F013B8A17A40F27810C2F20F
S315080029E00000017140F20001C2F2000109780029D5
S315080029F040F0C4870021C172817B39B10179602911
S31508002A0004D10021A172817B0139817301780229E1
S31508002A1003D00078032840F0B187A020E072204652
S31508002A20FFF7D4FC00F0AABF40F20007C2F2000785
S31508002A3040F27C01B878C2F2000101F1500200218F
S31508002A40FFF752FC3878012840F0988740F278164C
S31508002A50C2F20006F07FD7E9081200F07F0021F4E1
S31508002A60FE0141EA0040C7E90802F07FD7E90812EB
S31508002A7000F07F0021F4FE4141EA0020C7E9080280
S31508002A80F07FD7E90A1200F07F0021F4FE0141EA3F
S31508002A900040C7E90A02F07FD7E90A1200F07F0072
S31508002AA021F4FE4141EA0020C7E90A02F07FD7E98E
S31508002AB00C1200F07F0021F4FE0141EA0040C7E94C
S31508002AC00C02F07FD7E90C1200F07F0021F4FE41DA
S31508002AD041EA0020C7E90C0296F82400002800F015
S31508002AE0C98196F8240004F10801012814BF07F1EA
S31508002AF0280007F13000C1E140F27810C2F2000068
S31508002B000178032900F07B870221017000F036BFA7
S31508002B1040F27811C2F200010A7F5520B22A40F22B
S31508002B20000208BF6FF05500A072C2F200021278C8
S31508002B304AB9CA7EA37B102703F0CF03002A08BF31
S31508002B402027DA19A273227A677A960046EA971638
S31508002B504CF6CD456E4343F6CE65637BC0F600055D
S31508002B60AA5C23F03F03F60C63738E7482EA0701AE
S31508002B70C9B2695CC0B24840285CE17A227B484009
S31508002B80285CA17B5040285C5840C0B2285C48406D
S31508002B90285CE07300F0F2BE40F20000C2F20000CA
S31508002BA00078012840F024870E20A07240F27810A1
S31508002BB0C2F20000807CE6214843800841F27B414E
S31508002BC04843810D062262F31F11227A43F6CE6727
S31508002BD0C0F60007637ABA5C800B5A40BA5C237B5E
S31508002BE082F00E02BA5C63F302004A40D2B2BA5CC3
S31508002BF0667B4240D2B2BA5CA37B7240BA5CE17291
S31508002C0083EA0201795C2073E17300F0B7BE00BF66
S31508002C1040F27810C2F20000C17B0131C173C17B5A
S31508002C200229C0F0AB860021C17340F20001C2F24E
S31508002C300001887801F15402C8E500BF40F2781017
S31508002C40C2F200000121017300F0D9BE207B40F2D8
S31508002C507816C2F2000640F200053077C2F2000587
S31508002C6040F27C07A878C2F2000707F1100200219B
S31508002C704FF00009FFF738FBA87807F1200200217A
S31508002C80FFF732FBA87807F130020021FFF72CFB8B
S31508002C90707F01307077707F0F2828BF86F81D90E7
S31508002CA0707F87F83A00B07F002851D00020B077AF
S31508002CB0C82087F8390000F061BE00BF20790828CF
S31508002CC04ED0062840F09B8640F20000C2F2000073
S31508002CD00021017000F052BEFF2A63D140F278103D
S31508002CE0C2F20000027C42F00402027440F20000C4
S31508002CF0C2F200000278002A70D0FF2200F056BD0A
S31508002D00227B43F6CE63277AC0F60003667ADF5D38
S31508002D107740DF5D7840185C4840185C617B50401E
S31508002D20185CA27B4840185C5040185CE07300F0C1
S31508002D3025BE00BF4FF0FF31A1604FF61F71A1817C
S31508002D40FC21A173FF21FF22FF27FF231FE100BFFC
S31508002D500120B077E82087F8390000F00FBE00BFE1
S31508002D6040F20000C2F200000121017000F006BE28
S31508002D709CF80430202B04D09CF80430C02B40F07B
S31508002D8001814EF6831363818323E927FFE000BFA1
S31508002D90A17B417340F20000C2F20000007800F007
S31508002DA0EDBD00BF607A930043EA901340F27810B5
S31508002DB0C2F200004385438DB3F5B57F9CBF01235E
S31508002DC00370037C03F0FB03037440F20000C2F2B5
S31508002DD000000078002840F0E98417E0D0E90412E2
S31508002DE040F2FF331943C0E90412D0E90612194329
S31508002DF0C0E90612D0E904126FF3DF42C0E90412F3
S31508002E00D0E9041222F4F822C0E9041240F20006BE
S31508002E10C2F20006B0790138B071B079002840F0E6
S31508002E20A98440F27817C2F2000797F82000122802
S31508002E3000F25784DFE810F01400550455045504D1
S31508002E40550455045504550455042203E002550457
S31508002E50550455045504550455045403780300BF16
S31508002E60D6E906013C2262F3DF41C6E906010920DC
S31508002E7000F014BC04F1080107F1200000F032FE4E
S31508002E8096F824004AF6AB2101304143490C01EB80
S31508002E904101401A86F8240000F070BD01214172F4
S31508002EA00179FA1FA3F10906B2FA82F2B6FA86F692
S31508002EB0520920294FEA561107D0072F05D1092BA9
S31508002EC003D1417951B10121012200238385C37CB5
S31508002ED0002B00F00A82C37C013B05E2818DFE29A6
S31508002EE002D8818D01318185818D4729C0F05081B5
S31508002EF040F20001C2F200016422CA700A78012A6F
S31508002F0004BF0F2280F822200978002940F0E981C1
S31508002F100D21E4E1A07BFF2808BF2C2900F0708171
S31508002F20627AC90740F0968196F826104B1C86F8F7
S31508002F30263040F29063C2F2000333F811703A4328
S31508002F4023F81120618996F8262009BA090C571C1E
S31508002F5086F8267023F81210A18996F8262009BA51
S31508002F60090C571C86F8267023F81210E17B96F890
S31508002F70262041EA0020511C86F8261023F8120064
S31508002F8000F0FCBC4FF68F5363818F23FD279CF816
S31508002F900460202E03D09CF80460C02E50D1267BF6
S31508002FA046F0E00626739CF81060002E4CD19CF87B
S31508002FB00410C02940F09E809CF8002040F20001D1
S31508002FC0C2F200010FF678270D2691F83D3002FB74
S31508002FD00672D25C4A874A8F02EB820292004A87BF
S31508002FE0DCF83020B2F5467F05D94A89292A02D36A
S31508002FF04A89013A4A81DCF8302040F211339A4274
S3150800300006D84A894B8F9A4202D24A8901324A81A6
S315080030104A894B8F9A4284BF4A8F4A814A89282A0D
S315080030209CBF00224A819CF80920002A00F0C6802D
S315080030304A89B2F5AF6F40F2CB804FF4AF62C6E073
S315080030409CF81060002EB2D09CF80160FF2E04D0C8
S315080030509CF8016001368CF8016003F00F06B60192
S3150800306046EA9706ACF828609CF80460202E12D130
S3150800307040F20006C2F20006BCF828507079854274
S3150800308009D9707903F0F00343EA9013A3727079B3
S315080030908000C71CE7729CF8070098B19CF80500E9
S315080030A040280FD19CF81A0060B940F2000002F0DF
S315080030B0C00203F00F03C2F2000000266272A37278
S315080030C080F8416043F6CE60C0F60000415C51408E
S315080030D0415CFAB25940415C637B5140415C227BBA
S315080030E05140415CA27B5940415C5140405CE073D1
S315080030F000F044BC9CF8041020293FD140F200019E
S31508003100C2F200010A79013A0A710A7992BBBCF83F
S31508003110362041F269039A4205D30A89672A02D3FF
S315080031200A89013A0A81BCF8362041F262039A42BA
S3150800313006D80A899209042A02D80A8901320A811C
S315080031400A89682A9CBF01228CF802200A89672A04
S3150800315024BFFA220A710A89862A24BF96220A718E
S315080031600A89A72A24BF64220A710A89C92A24BFA0
S3150800317032220A710A890989FAE100BF40F2000180
S31508003180C2F200010A8FB2F5C17F31D20F2241E1A6
S31508003190818D3329C0F0908040F20001C2F200010F
S315080031A05D22CA700A78012A04BF0D2280F82220FF
S315080031B00978002940F095800C2190E09CF80820B9
S315080031C032B14A89B2F5E16F02D94FF4E1624A8118
S315080031D09CF81220602A24BF01228CF802209CF851
S315080031E00220002A1CBF00224A814A894989BFE178
S315080031F00A8FB2F5C87F40F2098100220AE100BFB2
S3150800320042F20F70B0860020F086B072B07A5F285E
S315080032104AD840F29060C2F2000005E0B17A013166
S31508003220B172B17A60293FD2B18EB27A30F81220E3
S31508003230914203D9B17A30F81110B186F18EB27A7B
S3150800324030F812209142E9D2B17A30F81110F1869D
S31508003250E4E700BFA17A96F8263041EA02215A1C13
S3150800326086F8262040F29062C2F2000222F8131075
S31508003270B4F80B1096F8263009BA090C5F1C86F8C4
S31508003280267022F81310617B96F8263040EA012052
S31508003290591C86F8261022F81300E07B96F82610AB
S315080032A0000222F8110069E3F08E41F29A01884281
S315080032B024BF0120B07061E3818D1F29C0F03C81D5
S315080032C040F20001C2F200015422CA700A78012AAB
S315080032D004BF0C2280F82220097811B90B2180F846
S315080032E02210012132230122C3740379202B40F0D6
S315080032F02981002A00F02681002900F0238190F810
S315080033002310FD291AD890F82310013180F82310CC
S3150800331090F82310A12915D290F823108D2922D3CD
S3150800332040F20001C2F200016E224A713221C174D4
S31508003330072180F822100A2141751FE390F823100F
S31508003340A129E9D340F20001C2F20001FA224A712A
S315080033503221C1740F2180F822104221417590F85C
S3150800336023108D29DCD290F8231079290ED340F248
S315080033700001C2F2000178224A713221C174082183
S3150800338080F8221014214175F8E200BF90F8231046
S3150800339065290DD340F20001C2F2000182224A716A
S315080033A03221C174092180F822101E214175E5E2F7
S315080033B090F8231051290DD340F20001C2F2000102
S315080033C08C224A713221C1740B2180F822102821DF
S315080033D04175D3E290F823103D29C0F0DB8040F216
S315080033E00001C2F2000196224A7132210C22C174F0
S315080033F080F822204175C1E2B87C5128C0F0DC80F3
S31508003400D6E904016FF3DF41F6E000BF0A8F6FF0DB
S315080034106F039A1A81F8412091F83D20092A07D3AB
S3150800342091F84120072A22BF0622627281F84120BC
S3150800343091F83D20032A15D891F84120072A11D37F
S31508003440062281F8412091F83D20022A9CBF0322DA
S3150800345081F8412091F83D20012A9EBF022262721E
S3150800346081F8412091F83D10032900F28180DFE8B8
S3150800347001F003037B7D00BF412178E03878397875
S3150800348043F69662C0F60002C1EBC10132F811108C
S31508003490BB7CC0EBC000594348F21F53C5F2EB137F
S315080034A0A1FB031332F81000D6E90412A0EB53105F
S315080034B06FF3DF4242EAC040C6E904107879402833
S315080034C040F0EB80B87CA0F14201202900F2CC80C4
S315080034D0B87C1821C0F1630080B2C0F12100D0E0A9
S315080034E03878397843F69662C0F60002C1EBC10116
S315080034F002EB41018988BB7CC0EBC000594348F206
S315080035001F53C5F2EB13A1FB031302EB400080889F
S31508003510D6E90412A0EB53106FF3DF4242EAC0402B
S31508003520C6E904101220B9E0B87C512868D3D6E958
S3150800353004016FF3DF4183E0012101220379202B87
S315080035403FF4D7AE002180F82310C17C002900F093
S315080035501582C17C0139C174C17C002940F00E82F4
S31508003560002101750AE200BF462100E050212172C0
S315080035709CF8161021729CF8172062729CF8183075
S31508003580A3729CF81970E7729CF80160FF2E7FF40D
S315080035905FAD62E590F82310292955D340F2000162
S315080035A0C2F20001A0224A713221C1740D2180F8AD
S315080035B022103C214175E1E13878397843F6966264
S315080035C0C0F60002C1EBC10102EB41014988BB7C90
S315080035D0C0EBC000594348F21F53C5F2EB13A1FBD9
S315080035E0031302EB40004188D6E90402A1EB53110C
S315080035F06FF3DF4242EAC141C6E9040111204DE0FA
S315080036003878397843F69662C0F60002C1EBC101F4
S3150800361002EB4101C988BB7CC0EBC000594348F2A4
S315080036201F53C5F2EB13A1FB031302EB4000C1883D
S31508003630D6E90402A1EB53116FF3DF4242EAC14116
S31508003640C6E90401002029E040F20001C2F20001A7
S31508003650FA224A713221C1740F2180F82210012101
S3150800366001754221417589E1A0F12101B87C202923
S3150800367006D8C0F1420080B2C0F121000C2100E05A
S315080036800621D6E90423C0EB001001EB80006FF396
S31508003690DF4343EAC040C6E904200A20D6E90412FB
S315080036A0D6E90613D20C62F3DF43C6E9061397F888
S315080036B02010D6E9042301F01F0123F4F82343EA76
S315080036C08131C6E9042197F82010D6E9062301F0CE
S315080036D01F0123F4F82343EA8131C6E9062187F856
S315080036E02000F87FD6E9041221F07F4141EA006004
S315080036F0C6E90402F87FD6E9061221F07F4141EABD
S315080037000060C6E906023878E0B13879C02819D1D0
S31508003710B87C4FF49671484380B2800841F27B41E9
S315080037204843D6E9041240F2FF33994341EA50412F
S31508003730C6E90412D6E906216FF3090242EA5040A7
S31508003740C6E9060197F82110B1FA81F0002940F27E
S315080037507C01C2F200014FEA501506F1100001F192
S31508003760480108BF06F1180000F084F9052087F81B
S315080037702150B07140F27C00C2F2000090F8482057
S31508003780227290F84910617290F84A10A17290F866
S315080037904B10E17290F84C10217390F84D1061733C
S315080037A090F84E30A37390F84F00E07340F2000093
S315080037B0C2F200000378012B40F0D580CB060ED468
S315080037C0637A40F2FF3603F0030343EA820240F2CB
S315080037D07813C2F200039F6BB7433A449A6340F2E8
S315080037E07812C2F20002D2E90E379B082372D2E998
S315080037F00E37CD279B01637201F00303E17A6373E9
S315080038007943090BD177D17F43F6DE7780F83D10EF
S31508003810D17FC0F60007795CDB000131D177D17F13
S3150800382080F83E10A17B0F0643EA577382F82030D2
S3150800383092F82030053B132B00F29580DFE803F061
S315080038400A93931C93932C9393939393933E9393F6
S315080038505493936A1378167843F69667C3EBC303B3
S31508003860C0F60007C6EBC60607EB430307EB460799
S31508003870BF89927C9B8962E01378177843F696662F
S31508003880C3EBC303C0F60006C7EBC70736F81770C5
S31508003890927C36F8133052E01378167843F696671A
S315080038A0C3EBC303C0F60007C6EBC60607EB430324
S315080038B007EB4607BF88927C9B8840E0937C4F2B9A
S315080038C04CD81378167843F69667C3EBC303C0F64D
S315080038D00007C6EBC60607EB430307EB46075B89FB
S315080038E0927C7F892AE000BF937C4F2B36D81378C9
S315080038F0167843F69667C3EBC303C0F60007C6EB14
S31508003900C60607EB430307EB46075B88927C7F886E
S3150800391014E000BF937C4F2B20D81378167843F613
S315080039209667C3EBC303C0F60007C6EBC60607EBEC
S31508003930430307EB4607DB88927CFF8814327A43F9
S3150800394048F21F57C5F2EB17A2FB0727A3EB57123E
S3150800395001F0E00141EA122103E000BF01F0E001B5
S315080039600022A173E27340F27811C2F20001227BB1
S31508003970CB7C002B18BF12F001024BD1216840F214
S31508003980C45081420CDC40F29D50814216DC40F264
S315080039905530814228D0B1F56E7F25D02FE000BF83
S315080039A040F22460814217DC40F2C55081421BD0A8
S315080039B040F2EC50814217D021E000BF40F29E5001
S315080039C0814215D040F2BF50814202BF40F200004A
S315080039D0C2F20000007812E040F22560814203D06E
S315080039E040F2336081420AD101B0BDE8F08300BFDE
S315080039F040F20000C2F2000000780028F4D0B8FABD
S31508003A0088F040090021224601B0BDE8F043FEF7E0
S31508003A106BBC00BF027832B9A27A91F8223002F064
S31508003A20F0021A43A27200780128A7D1A07A91F869
S31508003A30221000F00F0040EA0110A0729EE700BFB6
S31508003A400F141E327D7D7D69645A503C1E0F1E2858
S31508003A503C7D7D7D69645A503C1E0F1E3C507D7D21
S31508003A607D69645A503C1E0F1E465A7D7D7D6964E9
S31508003A705A503C1E026892080A700268C2F38433E0
S31508003A8043EA82124A700268F02303EA9213C2F3E9
S31508003A9003521A448A70C278CA700279530043EAFC
S31508003AA0D2120A7130F8052F837842EA03420423BA
S31508003AB003EAD20343EA4213C2F341221A444A7183
S31508003AC08278038843EA0242E02303EA520343EA80
S31508003AD0D2428A718278008840EA0240C00AC871D8
S31508003AE0704700000278930143EA12120A7042787E
S31508003AF052004A70827852008A70C278CA70027977
S31508003B0052000A71427992004A71C079C8717047A9
S31508003B1094B0FDF7D7FE092006904FF480300225B1
S31508003B2008900790CDE90E504FF4E010CDE9100546
S31508003B304FF4C0600421129040200024099101210D
S31508003B40139006A80C94CDE90A440B910D91FEF743
S31508003B5069F828B1EFF3108072B600BFFEE700BF20
S31508003B600F20CDE901054FF48060CDE9040401A8D2
S31508003B7002210394FDF74EFF20B1EFF3108072B6D1
S31508003B80FEE700BF7020C4F2422001210160FDF764
S31508003B902BFDFDF713FD42F20C0040F25018C4F25B
S31508003BA002000421C2F20008016008F10400FDF7D2
S31508003BB08BFB98F81400A5280DD10221404640F841
S31508003BC0041F00210174FDF795FB002818BFFDF7B7
S31508003BD01FFFFDF7E7FCFDF7E7FC43F68A614FF2A6
S31508003BE0E870C0F60001C1F6FF700C22FCF796FBE0
S31508003BF0002840F08F80FEF7E3FAFEF79DFAFEF7FD
S31508003C00BDFAFEF723FB41F20004C4F20104204684
S31508003C104FF48051FDF70AFE20464FF40061FDF788
S31508003C2005FE20464FF48061FDF700FEA4F500600E
S31508003C304FF40041FDF7FAFD40F2BC54C2F200040D
S31508003C4040F64572C0F6000220460621FDF71EF929
S31508003C5041F26D02C0F6000220460821FDF716F96A
S31508003C6040F22065C2F2000540F6D972C0F600029D
S31508003C7028460621FDF70AF941F2FD02C0F60002C0
S31508003C8028460821FDF702F92046FCF701FC2846DC
S31508003C90FCF7FEFB40F28466C2F2000606AF09E0B6
S31508003CA0002000F079F8012000F076F82068806995
S31508003CB0286880693046FDF7F1FDFDF7BDFDD8F8A7
S31508003CC00010401AB0F57A7F05D3FDF7B5FDC8F8A0
S31508003CD0000000F021F800200121FEF70DFA40B19E
S31508003CE0002001213A46FEF7CFFA00203946FEF7B2
S31508003CF0BBFB01200121FEF7FFF90028D0D00120E7
S31508003D0001213A46FEF7C0FA01203946FEF7ACFB18
S31508003D10C6E700BFFEF72EFB10B540F20001C2F25F
S31508003D2000010878B0B940F27810C2F20000C27AF1
S31508003D300132C272C27A022A0CD3002201234270CF
S31508003D408270C270027181F83C3042718271C27110
S31508003D5002724272487818B148780138487010BD26
S31508003D60142040F278144870C2F20004207B18B17F
S31508003D700020207310BD00BF2079202802D02079AA
S31508003D80C028F5D1887801F144020021FEF7ACFA83
S31508003D900020207310BD0000F0B58DB040F27017FA
S31508003DA0C2F200073E180546385C3179884208D0C9
S31508003DB0785D3179884207D9785D3179401A0006ED
S31508003DC008D10DB0F0BD00BF3079795D081A103002
S31508003DD00006F6D023A050F825402046FCF796FDAD
S31508003DE00328EED13079795D884209D10420002272
S31508003DF00690CDE9072202A80AA9FCF7DAFA22E01A
S31508003E0040F2B8113079C2F2000101EB052101EB4D
S31508003E100013000108581A7959799F79DD689B685B
S31508003E200029CDE90A35337918BF0121013303F09A
S31508003E300F0333718B0004AE46F8210006930892EF
S31508003E4057B10220079004A902AA01AB2046FCF745
S31508003E50FDFB0DB0F0BD00BF0020002A0790CAD1B7
S31508003E60F1E700BFBC05002020060020000004057D
S31508003E700607080900000000000D00000000000009
S31508003E800000010203040607080933445566112297
S31508003E90334477665544AE015401BC0230023C00F7
S31508003EA09600BE005802E0018403D0023C00C80018
S31508003EB0F500DA0244022003800250000E014F0189
S31508003EC06A048403D00740065000AE011702008535
S31508003ED08F0A9B1E1491B3363CB928ADA722E36618
S31508003EE06CE978FDF77250D5DF5ACB4E44C143C60C
S31508003EF0CC49D85D57D2F0757FFA6BEEE461A02500
S31508003F002FAA3BBEB43113969C19880D07828603E7
S31508003F10098C1D98921735B0BA3FAE2B21A465E0DF
S31508003F20EA6FFE7B71F4D65359DC4DC8C247C540CB
S31508003F304ACF5EDBD15476F3F97CED6862E726A3B7
S31508003F40A92CBD3832B795101A9F0E8B8104890C9F
S31508003F50068312979D183ABFB530A1242EAB6AEF97
S31508003F60E560F1747EFBD95C56D342C7CD48CA4F8B
S31508003F7045C051D4DE5B79FCF673E2676DE829AC7F
S31508003F80A623B2373DB89A1F159001848E0B0F8A67
S31508003F90800594111B9EBC3933B627A2A82DEC695F
S31508003FA063E677F2F87D5FDAD055C4414BCE4CC94B
S31508003FB0C346D75258DDFF7A70F564E1EB6EAF2A37
S31508003FC020A534B1BB3E1C9993168702088D0102C1
S31508003FD0030405060708090A0B0C0D0E0F10191C19
S31508003FE01F2225323F4C505255575A0010400008A0
S31508003FF000000020F00000008C01000800410008C5
S31508004000F0000020900C0000A80100080000000045
S315080040100101026432FA01004001C40900000000EF
S315080040202CC90032636002002CC9C032E36002006A
S315080040300142420002390000024040000228000006
S3150800404003404000021500002C010000000000009B
S31508004050000000009B070000080000000221020083
S31508004060000000005503000008000000140A13971A
S3150800407010004000050600000100000000000000D6
S315080040800000000001000000100000000706000004
S3150800409001000000000000000000000025060000E6
S315080040A0060000000200FF1D20000000C5050000F4
S315080040B00800000040012F5E00000000B803000061
S315080040C0050000007FE80107FF000000BC050000AE
S315080040D0080000000000000000000000EC050000D9
S315080040E00100000000000000000000009B0700001F
S315080040F008000000300100FFFFFFFFFF0024F40066
S70508000151A0
