S31508000000280C0020ED010008551D0008F91B000802
S31508000010511D0008E1040008451E00080000000004
S31508000020000000000000000000000000391E000863
S315080000302D05000800000000591D00083D1E000897
S31508000040070200080702000807020008070200085E
S31508000050070200080702000807020008070200084E
S31508000060070200080702000807020008070200083E
S31508000070070200080702000807020008070200082E
S31508000080070200080702000807020008FD04000826
S31508000090E5040008F1040008070200080702000842
S315080000A007020008070200080702000807020008FE
S315080000B007020008070200080702000807020008EE
S315080000C007020008070200080702000807020008DE
S315080000D007020008070200080702000807020008CE
S315080000E007020008070200080702000800000000CF
S315080000F000000000000000000000000000000000F2
S3150800010000000000000000000702000807020008BF
S31508000110070200080702000807020008070200088D
S31508000120070200080702000807020008070200087D
S315080001300702000800000000000000002105000872
S315080001400905000815050008070200080702000847
S3150800015000F002F800F03AF80AA090E8000C824491
S315080001608344AAF10107DA4501D100F02FF8AFF26E
S31508000170090EBAE80F0013F0010F18BFFB1A43F077
S3150800018001031847EC2E00000C2F0000103A24BF7C
S3150800019078C878C1FAD8520724BF30C830C144BFDE
S315080001A004680C6070470000002300240025002620
S315080001B0103A28BF78C1FBD8520728BF30C148BFBC
S315080001C00B6070471FB51FBD10B510BD00F026F9AE
S315080001D01146FFF7F7FF02F011FD00F044F903B4EA
S315080001E0FFF7F2FF03BC00F04BF90000094880470F
S315080001F009480047FEE7FEE7FEE7FEE7FEE7FEE7FB
S31508000200FEE7FEE7FEE7FEE704480549054A064B12
S3150800021070470000411E000851010008280600200A
S31508000220280C0020280800202808002053EA020C81
S3150800023000F069802DE9F04B4FF00006002B1FBF38
S31508000240B3FA83F503FA05F424FA05F65E4012BFFD
S315080002501643B2FA82F502FA05F4C5F120051EBF67
S3150800026022FA05FC44EA0C04203556EA044C4FEA07
S31508000270144418BF641C4FF000084FF00009904260
S3150800028071EB030C39D3002919BFB1FA81F701FACA
S3150800029007F6B0FA80F700FA07F6C7F120071EBF7F
S315080002A020FA07FC46EA0C062037B6FBF4FCA7EB57
S315080002B00507103F07F01F0BCBF120062CFA06F6B0
S315080002C00CFA0BFB44BFB3460026202FA4BF5E469C
S315080002D04FF0000B5BEA060C08BF4FF0010B19EB59
S315080002E00B0948EB0608ABFB027C06FB02CC0BFBB2
S315080002F003CCC01B71EB0C01C1E70B460246414615
S315080003004846BDE8F08B13B5084318BF4FF0FF30D9
S315080003100146AFF30080BDE81C40704740EA010380
S3150800032070B59B072ED14FF00136042A2AD308C888
S3150800033010C99D1B9D43121F15EAC61517D0D8B2C2
S31508000340E1B2401A50EA056110D198B2A1B2401A3A
S3150800035050EA05410AD123F07F4024F07F41401A34
S3150800036050EA052102D1180EA0EB146070BDA34215
S31508000370DBD018BA21BA884201D9012070BD4FF0E6
S31508000380FF3070BD0AB9002070BD10F8013B11F8A6
S31508000390014B63B1A3420AD1521E08D010F8013BA3
S315080003A011F8014B1BB1A34201D1521EEDD1181B06
S315080003B070BD10B5203AC0F00B80B1E81850A0E81F
S315080003C01850B1E81850A0E81850203ABFF4F5AF15
S315080003D05FEA027C24BFB1E81850A0E8185044BF71
S315080003E018C918C0BDE810405FEA827C24BF51F8DE
S315080003F0043B40F8043B08BF7047D20728BF31F8D2
S31508000400023B48BF11F8012B28BF20F8023B48BF22
S3150800041000F8012B7047704770477047754600F023
S315080004202BF8AE4605006946534620F00700854678
S3150800043018B020B5FFF7E8FEBDE820404FF00006EB
S315080004404FF000074FF000084FF0000BAC46ACE841
S31508000450C009ACE8C009ACE8C009ACE8C00921F09D
S3150800046007018D46704710B50446AFF30080204655
S31508000470BDE81040FFF7B3BE00487047C000002033
S3150800048001491820ABBEFEE72600020070470000AF
S3150800049010B58AB0044600200121CDE90500CDE952
S315080004A00000CDE902000490CDE9071109906946DC
S315080004B0204600F0B9F8002818BF00F039F82046A1
S315080004C000F0FEFD002818BF00F032F82046132180
S315080004D000F034F8002818BF00F02AF80AB010BD5A
S315080004E0FEE7000040F25850C2F2000000F0B2B930
S315080004F040F25850C2F2000000F0ACB940F2585031
S31508000500C2F2000000F0A6B940F2BC50C2F20000E8
S3150800051000F0A0B940F2BC50C2F2000000F09AB94F
S3150800052040F2BC50C2F2000000F094B970470000D7
S31508000530EFF3108072B600F0C9BF000090F82020D3
S31508000540013A012A08D8006800F11402002013684D
S3150800055019431160704700BF00F1240201204FF4CF
S3150800056080211368194311607047000010B590F890
S3150800057020E0D0F800C0AEF1010EBEF1010FDCF8A4
S3150800058008E011D81EF0E05F18D0CEF3016EBEF178
S31508000590030F1DD100F1240101204FF400020B685E
S315080005A01A430A6010BD00BF00F1240101204FF470
S315080005B080220B681A430A6010BD00BF00F12401AF
S315080005C001204FF400120B681A430A6010BD00BFE1
S315080005D0012000FA0EF01860886818B14B6840EAE6
S315080005E0C30001E008684005D1E9033403430CEB76
S315080005F00E10C0F88031C0F88441097D012905D163
S3150800060000F5C2710B6843F480730B605168C0F83B
S315080006108C11126800F5C071C0F8882100200122EB
S315080006200B681A430A6010BDB0B590F82020013A4D
S31508000630012A2FD846F20060C4F20000026842F090
S3150800064001020260026822F47C520260D1F814E0CA
S31508000650CC694A6A0368012C43EA022202600EF05A
S315080006601F024FF0010303FA02F2C3696FEA020C94
S3150800067023EA0203C36113D02CBBC36803EA0C0345
S31508000680C360CB688C8844EA034300EBCE0423643A
S315080006900B4611E0416A41F4802141620120B0BD58
S315080006A0C3681343C3600B688C8844EA034300EBB2
S315080006B0CE04236401F10C038C681B8843EA0443C7
S315080006C000EBCE04636443688D6943EA0204D1F8FB
S315080006D010E0096A002D08BF03EA0C044460436968
S315080006E0BEF1000F43EA020408BF03EA0C0401291D
S315080006F0446102D1C1691143C161016821F0010158
S3150800070001600020B0BD00007047000010B590F8E9
S315080007102040013C012C71D8D0F800C0002977D0C0
S31508000720DCF81040A40777D00CEB011CDCF8B041CC
S315080007300CF5D87E14F004049460DCF8B04119BFB7
S31508000740E4085460640D1460DEF80040002904F0E3
S315080007500204D460DCF8B44104F00F041461DCF838
S31508000760B441C4F307249461DCF8B4414FEA144455
S315080007705461DCF8B8211A70026802EB0112D2F84B
S31508000780B8214FEA12225A70026802EB0112D2F817
S31508000790B8214FEA12429A70026802EB0112D2F8A7
S315080007A0B8214FEA1262DA70026802EB0112D2F837
S315080007B0BC211A71026802EB0112D2F8BC214FEA79
S315080007C012225A71026802EB0112D2F8BC214FEAD2
S315080007D012429A71026802EB0112D2F8BC214FEA62
S315080007E01262DA71006814BF00F1100100F10C0101
S315080007F0002020220B681A430A6010BD00F124016C
S3150800080001204FF480220B681A430A6010BD00BF0E
S31508000810DCF80C40A40787D100F1240101204FF42D
S3150800082000120B681A430A6010BD000090F82010E9
S315080008300139012984BF00207047006881688268F1
S315080008408068C1F38061C2F3C0621144C0F30070CE
S31508000850084470472DE9F04F81B0044600684669A0
S31508000860D0F804908768D0F80CB0D0F810A0D0F86B
S315080008701880F10704D1002530071FD426E000BFF1
S31508000880F90712D00121BA07816009D4780700F167
S31508000890AB80380700F1B28004F1340002E000BFF3
S315080008A004F128000168204688470025F80500F16C
S315080008B08780F80300F1AB80300707D51BF01000DE
S315080008C004D0206845F400751021C160700708D56A
S315080008D01BF0080005D02068616C0822C26020461B
S315080008E08847B00706D52068C068800702D0216C03
S315080008F020468847700607D51AF0100004D02068ED
S3150800090045F4806510210161B00608D51AF0080083
S3150800091005D02068E16C0822026120468847F00667
S3150800092006D520680069800702D0A16C2046884752
S31508000930B00308D519F0100005D02068216D1022E3
S31508000940426020468847F00308D519F0080005D00C
S315080009502068616D0822426020468847300440F1CD
S3150800096091805FEA497040F18A8006F4807008EA4F
S31508000970102028435FEA8871014648BF41F002010A
S31508000980B20558BF01465FEA48700D4648BF45F0B4
S315080009900405700558BF0D46300540F1708018F003
S315080009A070006CD010380009052863D8DFE800F01D
S315080009B0045054585C6000BF45F008055AE000BF73
S315080009C020684FF48071BA05816005D478050FD484
S315080009D0380517D4A16B00E0E16A20468847F8037A
S315080009E07FF56AAF13E000BF4FF400655EE700BF0E
S315080009F005F50055F8037FF55FAF08E04FF480551D
S31508000A0054E700BF05F58045F8037FF555AF206824
S31508000A104FF48031BA03816006D478030CD43803C6
S31508000A2010D4E16B01E000BF216B204688473007F0
S31508000A303FF544AF4AE700BF05F5004530073FF5E7
S31508000A403DAF43E705F5803530073FF537AF3DE75E
S31508000A5045F010050EE000BF45F020050AE000BF8E
S31508000A6045F0400506E000BF45F0800502E000BFFE
S31508000A7045F480752068816921F0700181612068DC
S31508000A800421416055B1606AA16D40EA050220461D
S31508000A90626201B0BDE8F04F084700BF01B0BDE88B
S31508000AA0F08F00002DE9F041002861D0044690F847
S31508000AB02000002849D141F2AD0141F2211541F249
S31508000AC0291241F2B108C0F60001C0F60005C0F6C9
S31508000AD0000241F2311341F22D10C0F60008C0F6AB
S31508000AE0000341F21D1641F22517C0F60000C4E9BD
S31508000AF00A5204F130026164E16D41F2B90C41F227
S31508000B00B50EC0F60006C0F60007C8C2C4E90F084D
S31508000B1041F2BD0041F2351240F20973C0F6000CED
S31508000B20C0F6000EC0F60000C0F60002C0F60003CC
S31508000B30C4E912CE20656265A36521B940F6314144
S31508000B40C0F60001E165204688472068016841F043
S31508000B500101016000F000FC054600BF20684168FD
S31508000B60C90709D100F0F8FB401B0B28F6D314E09F
S31508000B700120BDE8F08100BF016821F00201016093
S31508000B8000F0EAFB054600BF2068416889070FD5D3
S31508000B9000F0E2FB401B0B28F6D3606A052140F4FF
S31508000BA000306062012084F82010BDE8F08100BFA3
S31508000BB0217E0268012922F0800208BF8032026085
S31508000BC0617E0268012922F0400208BF40320260B5
S31508000BD0A17E0268012922F0200208BF20320260A5
S31508000BE0E17E0268012922F0100218BF1032026065
S31508000BF0217F0268012922F0080208BF0832026034
S31508000C00617F0268012922F0040208BF04320260EB
S31508000C10271D8ECF66691A433A4332430139114379
S31508000C20C16100200121606284F82010BDE8F081CE
S31508000C3070B586B0006846F60001C4F20001884225
S31508000C404FF00001CDE90411CDE9021146D046F274
S31508000C500041C4F20001884240F0A58040F2545198
S31508000C60C2F200010A6841F21C00C4F20200531CD9
S31508000C700B6042B9016841F000710160016801F03A
S31508000C8000710191019950F8041C40F6000441F0E6
S31508000C90040140F8041C50F8040CC4F2010400F0E6
S31508000CA00400019001984FF400600290002002AD04
S31508000CB0CDE903002046294600F03EFA4FF480505D
S31508000CC0029002200390032005902046294600F052
S31508000CD033FA1525142413264DE000BF41F21C00F3
S31508000CE0C4F20200016841F080610160016801F008
S31508000CF080610191019940F25451C2F200010A68DB
S31508000D00531C0B6042B9016841F00071016001682B
S31508000D1001F000710191019950F8041C02AE41F0EE
S31508000D20080140F8041C50F8040C314600F008008D
S31508000D3001900198202002900020CDE9030040F69A
S31508000D400000C4F2010000F58065284600F0F4F9B9
S31508000D500220039003204024059028463146029439
S31508000D6000F0EAF90420C4F201000168412541F0C7
S31508000D70E8613F26016030460021002200F06AFB48
S31508000D80304600F057FB20460021002200F062FBA7
S31508000D90204600F04FFB28460021002200F05AFBAF
S31508000DA0284600F047FB06B070BD0000BAB190F8BF
S31508000DB02030012B10D10E2911D8DFE801F00923C4
S31508000DC0272B2F33373B3F43474B4F1B1F0000BF93
S31508000DD082620020704700BF90F8203033B1416A24
S31508000DE041F4800141620120704700BF0E2905D0F9
S31508000DF00D29F4D1C2650020704700BF02660020A5
S31508000E00704700BFC2620020704700BF026300201F
S31508000E10704700BF42630020704700BF826300200E
S31508000E20704700BFC2630020704700BF02640020FD
S31508000E30704700BF42640020704700BF82640020EC
S31508000E40704700BFC2640020704700BF02650020DB
S31508000E50704700BF42650020704700BF82650020CA
S31508000E607047000070B58CB005AC03AB0021224674
S31508000E70FFF74CFCDDE90760042E08BF043425683B
S31508000E809DF82440022801D1012006E024B16846D5
S31508000E9003A92246FFF78DFA002040F22811C2F274
S31508000EA000018A788B79013202F00F029A421DD02E
S31508000EB0321F8B7840F25416B2FA82F2C2F200065A
S31508000EC0520906EB031383F8052283F80602DDE9C7
S31508000ED00020C3F8005283F80442C3F80C02C3F892
S31508000EE008228878013000F00F008870002001F091
S31508000EF095FF0CB070BD000070B58CB005AC03ABA7
S31508000F0000212246FFF702FCDDE90760042E08BF30
S31508000F10043425689DF82440022801D1012006E002
S31508000F2024B1684603A92246FFF743FA002040F297
S31508000F302811C2F20001CA78CB79013202F00F02F9
S31508000F409A421DD0321FCB7840F25416B2FA82F27A
S31508000F50C2F20006520906EB031383F8052383F849
S31508000F600603DDE90020C3F8005383F80443C3F8F9
S31508000F700C03C3F80823C878013000F00F00C870C6
S31508000F80012001F04BFF0CB070BD0000F0B58BB02E
S31508000F9004AC02AB012122460127FFF7B7FBDDE9C6
S31508000FA00660042E08BF043425689DF820400228F0
S31508000FB006D024B1684602A92246FFF7FAF90027A7
S31508000FC040F22810C2F2000081788279013101F0DE
S31508000FD00F0191421DD0311F827840F25413B1FAA5
S31508000FE081F1C2F20003490903EB021282F80512E5
S31508000FF0DDE90031C2F8005282F8044282F806722E
S31508001000C2F80C12C2F808328178013101F00F01DA
S315080010108170002001F002FF0BB0F0BDF0B58BB077
S3150800102004AC02AB012122460127FFF76FFBDDE97D
S315080010300660042E08BF043425689DF8204002285F
S3150800104006D024B1684602A92246FFF7B2F900275E
S3150800105040F22810C2F20000C178C279013101F0CD
S315080010600F0191421DD0311FC27840F25413B1FAD4
S3150800107081F1C2F20003490903EB021282F8051353
S31508001080DDE90031C2F8005382F8044382F806739A
S31508001090C2F80C13C2F80833C178013101F00F0108
S315080010A0C170012001F0BAFE0BB0F0BD7047000018
S315080010B07047000070470000704700007047000046
S315080010C0B0B5044690F8200001281DD1022084F806
S315080010D020002068016821F00101016000F03CF958
S315080010E0054600BF20684068C00713D000F034F9F1
S315080010F0401B0B28F6D3606A40F400306062052076
S3150800110084F820000120B0BD606A40F400206062C7
S315080011100120B0BD00206062B0BD0000704700002D
S3150800112070470000704700007047000070470000D5
S3150800113070470000704700002DE9F04F82B041F279
S315080011400042C4F201020E680423904208BF03233A
S31508001150002E009300F0F68040F20C4E4FF6FF7C0E
S31508001160C4F2010E00220124C1F2100C4FF0000A4D
S315080011704FF0000943E000BF012502F00C040F27D9
S31508001180A7402BEA070705FA04F43C4343F8264030
S31508001190D1F804B040F20045C4F201055FEACB334A
S315080011A02B6854BF23EA080343EA08032B606B68DD
S315080011B05FEA8B3454BF23EA080343EA08036B60EB
S315080011C05FEACB24AB6854BF23EA080343EA080363
S315080011D05FEA8B24AB60DEF800304FF0010454BFA1
S315080011E023EA080343EA0803CEF800300E680AF13A
S315080011F0010A36FA0AF302F1040200F0A38004FA9F
S315080012000AF816EA080FF1D04B68634512DC122B70
S3150800121056D8DFE803F0350B45495555555555550C
S31508001220555555555555554D510000BFD1F80C909B
S3150800123046E000BF4FF6FF77C1F22107BB420FDC3D
S315080012400027C1F21107BB421AD00027C1F21207C4
S31508001250BB4215D00027C1F22107BB4210D02FE0B0
S315080012600027C1F22207BB420AD00027C1F2310784
S31508001270BB4205D00027C1F23207BB4220D100BFCE
S315080012808B684BB1012B14BFC0F81480C0F81080CE
S315080012904FF0080914E000BF4FF0040910E000BF42
S315080012A0CB6803F108090BE04FF0000908E000BF1E
S315080012B0CB6803F1040903E0CB6803F10C0900BF0E
S315080012C013460546BAF1080F24BF203B04352E689D
S315080012D00F279F40BE4309FA03F333432B60CB79AC
S315080012E0DB067FF583AF41F21804C4F202042368D3
S315080012F04FEA9A0643F001032360236840F6000488
S3150800130003F001030193019B40F20043C4F2010379
S31508001310A3F57E7353F826B0C4F20104A0420FD099
S3150800132040F60044C4F20104A0423FF425AF41F25E
S315080013300004C4F20104009DA04208BF02251CE770
S3150800134000251AE702B0BDE8F08F00008068084063
S3150800135018BF01207047000040F22060C2F200006A
S315080013600068704740F2700040F22061C2F2000047
S31508001370C2F2000100780A6810440860704700004D
S3150800138080B542F20000C4F20200016841F0100183
S315080013900160032000F08AF8002000F005F800F04C
S315080013A027F8002080BD000070B540F27006C2F232
S315080013B0000640F2B8013278C2F200014FF47A739F
S315080013C00968B3FBF2F20446B1FBF2F1084600F0F5
S315080013D0F3FB0F2C4FF0010508D838B94FF0FF3052
S315080013E021460022002500F035F87460284670BDB5
S315080013F082B041F21800C4F202000168022241F0EC
S3150800140001010160016801F001010191019941683A
S3150800141041F080514160406800F08050009000988B
S315080014200420C4F20100016862F31A61016002B087
S3150800143070470000002848BF704700F01F010122CE
S3150800144002FA01F14EF200124009CEF2000242F809
S315080014502010704710B54EF60C5CCEF2000CDCF886
S315080014600030C3F3022E8EF00704042C28BF042490
S31508001470BEF103034FF0FF3E0EFA04F438BF002313
S31508001480A14399400EFA03F39A43114300F00F0261
S31508001490043A624409010C3200F16043B0F1FF3F9F
S315080014A0C8BF03F56442117010BD00004EF60C511A
S315080014B0CEF200010A684FF6FF031A4060F30A22CB
S315080014C042F0806040F0FD700860704700F0D2FC82
S315080014D04EF61050CEF200000268012922F00402EE
S315080014E002600FBF30BF40BF20BF20BF704700005B
S315080014F02DE9F04381B0002800F0878042F2000809
S31508001500C4F202080446D8F800000D4600F00700A9
S3150800151088420CD2D8F8000020F007002843C8F803
S315080015200000D8F8000000F00700A8426DD1206836
S3150800153041F204098107C4F2020917D5410705D506
S31508001540D9F8001041F4E061C9F80010010705D583
S31508001550D9F8001041F46051C9F80010D9F8001004
S31508001560A26821F0F0011143C9F80010C00743D161
S31508001570D8F8000000F00700A8420CD9D8F80000F7
S3150800158020F007002843C8F80000D8F8000000F04B
S315080015900700A84239D12068410707D5D9F80010B5
S315080015A0E26821F4E0611143C9F80010000708D584
S315080015B0D9F80000216920F4605040EAC100C9F852
S315080015C00000D9F8002047F6400002F00C01042973
S315080015D0C0F27D1079D0082944D142F6F061C2F3F1
S315080015E08344C0F60001095DD20341D440F60010D9
S315080015F0C0F23D00484368E0606802280AD0012826
S315080016002AD159F8041C890308D4012001B0BDE881
S31508001610F08300BF59F8041C8901F6D5D9F80010E3
S3150800162021F003010843C9F80000FFF795FE0646B6
S3150800163041F28837D9F80000616800F00C00B0EB79
S31508001640810F95D0FFF788FE801BB842F2D9032098
S3150800165001B0BDE8F08300BF59F8041C8907D4D54A
S31508001660DCE700BF41F20020C0F27A002DE000BF9F
S31508001670D9F8282043F2520302F00F02C0F60003FD
S31508001680D9F828709A5CFB0304D44843B0FBF2F0FF
S3150800169015E000BFD9F82830D9F828704FF280062F
S315080016A0C7F30327C0F2FA26C3F3031307FB006048
S315080016B00133A0FB0101A3FB0223FEF7B7FDA4F14A
S315080016C00D01B1FA81F14909C840D9F8001042F66E
S315080016D0FE62C1F30311C0F60002515C40F2B80283
S315080016E020FA01F140F27400C2F200000068C2F26A
S315080016F000021160FFF758FE002001B0BDE8F08334
S315080017002DE9F04182B0002800F0FE8104460078F9
S3150800171041F20006C007C4F202060CD0706800F059
S315080017200C00042840F09E803068800303D5A0682A
S31508001730002800F0E981207880071BD5706810F032
S315080017400C0F09D0706800F00C00082840F0A8803B
S315080017507068C00300F1A4803068800703D560690B
S31508001760012840F0D1813068A16920F0F80040EAEC
S31508001770C10030602078000736D4207840074BD463
S31508001780E06A002800F0A8817168C90308D5716865
S3150800179001F00C01082903D1F16AC90300F1B481EB
S315080017A0022840F0E5803068C00006D5F06A616B13
S315080017B000F0F000884240F0A7816827C4F242276B
S315080017C000203860FFF7C8FD054600BF30680001F5
S315080017D040F16481FFF7C0FD401B64284FF0030009
S315080017E0F4D902B0BDE8F081E069002800F08280F3
S315080017F06820C4F242200121C0F81814FFF7ACFD96
S31508001800054600BF706A800700F18880FFF7A4FDCF
S31508001810401B0228F6D93CE1F06910F0805808D13F
S31508001820F06940F08050F061F06900F08050009057
S31508001830009847F20007C4F200073868C00547D485
S31508001840386840F480703860FFF786FD054600BFAB
S315080018503868C0053CD4FFF77FFD401B6428F7D9DC
S3150800186017E100BF706800F00C00082803D1706803
S31508001870C0033FF559AFA068002800F0DD80B0F539
S31508001880A02F00F0F180B0F5803F00F0F1803068BD
S3150800189020F480303060306820F48020EBE000BF10
S315080018A06069002840F26800C4F2422076D001211F
S315080018B040F8681CFFF750FD054600BF30688007F2
S315080018C03FF551AFFFF748FD401B0228F6D9E0E087
S315080018D02069002874D0052800F08C80012800F0C3
S315080018E08D80306A20F001003062306A20F00400F2
S315080018F087E000BF6820C4F242200021C0F818140F
S31508001900FFF72AFD054600BF706A80077FF535AFE9
S31508001910FFF722FD401B0228F6D9BAE040F2B800CC
S31508001920C2F20000006844F6D351C1F26201A0FB7E
S315080019300101480A019000BF00BF0198411E002816
S3150800194001913FF41AAF00BF0198411E002801918A
S315080019503FF413AF00BF0198411E002801913FF4E0
S315080019600CAF00BF0198411E00280191E4D104E79D
S31508001970F06A002120F48030F0626820C4F2422028
S315080019800160FFF7E9FC05463068000140F1A480D4
S31508001990FFF7E2FC401B6428F6D97AE0002140F8FC
S315080019A0681CFFF7D9FC0546306880077FF5E2AE6C
S315080019B0FFF7D2FC401B02284FF00300F4D910E7CA
S315080019C0306A20F001003062306A20F0040030628C
S315080019D0FFF7C2FC054641F2883700BF306A800728
S315080019E020D5FFF7B9FC401BB8424FF00300F5D9E4
S315080019F0F7E600BF306A40F004003062306A40F013
S31508001A0001003062FFF7A8FC054641F2883700BF9F
S31508001A10306A800706D4FFF79FFC401BB842F7D907
S31508001A2037E000BFB8F1000F7FF4AAAEF06920F0E6
S31508001A308050F061A4E600BF306820F48030306042
S31508001A40306820F480203060FFF786FC054600BF2A
S31508001A50306880037FF56FAEFFF77EFC401B642875
S31508001A604FF00300F4D9BCE6306840F480203060BB
S31508001A70306840F480303060FFF76EFC054600BFE2
S31508001A80306880033FF557AEFFF766FC401B6428B5
S31508001A90F6D9032002B0BDE8F08100BFF06AD4E9A8
S31508001AA00C2120F0F0000843F062F06A20F4706020
S31508001AB01043F06201203860FFF74EFC054600BF70
S31508001AC03068000108D4FFF747FC401B64284FF034
S31508001AD00300F5D985E600BF256A8DB1706800F068
S31508001AE00C00082814D1012D0ED07068616A00F424
S31508001AF080328A4208D1A16A00F47010884203D164
S31508001B00002002B0BDE8F081012002B0BDE8F081F6
S31508001B106827C4F24227002047F8080CFFF71CFC88
S31508001B20022D05460CD100BF3068800114D5FFF799
S31508001B3013FC401B02284FF00300F5D951E600BFFD
S31508001B4030688001DCD5FFF707FC401B02284FF000
S31508001B500300F5D945E600BF606AB0F5803F09D1B4
S31508001B60F16A6268E3681143F162F16A21F00F01D4
S31508001B701943F1627168A26A21F47411104308438B
S31508001B807060012047F8080CFFF7E6FB044630684A
S31508001B908001B5D4FFF7E0FB001B02284FF00300D5
S31508001BA0F5D91EE64EF21000CEF20000016841F0AB
S31508001BB00201016070470000411E0020B0EB116F62
S31508001BC01CBF012070474EF21002CEF2000251608F
S31508001BD04EF62351CEF20001F0230B7007219060D8
S31508001BE0116070474EF21000CEF20000016821F035
S31508001BF00201016070470000FEE7000040F228126B
S31508001C00C2F2000202EB41021118125C084610F8F3
S31508001C10043F9A4202BF0020C0B270470A78037890
S31508001C209A4205D909780078081AC0B2704700BFE9
S31508001C3000780978081A1030C0B2704710B540F21B
S31508001C40585046F20041C2F20000C4F200010422D4
S31508001C5000234FF0012480E80E0000F10C014FF438
S31508001C60602C4FF4801E81E8085084618383FEF758
S31508001C7019FF002808BF10BDBDE81040FEF758BC84
S31508001C8010B540F2BC5046F60001C2F20000C4F29C
S31508001C900001042200234FF0012480E80E0000F121
S31508001CA00C014FF4602C4FF4801E81E808508461C3
S31508001CB08383FEF7F7FE002808BF10BDBDE8104075
S31508001CC0FEF736BCF0B585B0002641F2180004963A
S31508001CD0C4F20200016840F6000441F020010160E8
S31508001CE00168C4F2010401F020010091009901681D
S31508001CF001AD41F0040101600168012701F004010A
S31508001D0000910099016841F010010160016801F035
S31508001D10100100910099016841F00801016000680E
S31508001D20294600F00800009000984FF40040CDE9DD
S31508001D30010620460397FFF7FFF94FF4E05001A983
S31508001D40C1C104F500602946FFF7F6F905B0F0BDF4
S31508001D50FEE70000FEE700007047000080B540F28D
S31508001D602813C2F2000303EB410303EB000C1CF833
S31508001D7004EF1B5C9E4504BF022080BD40F254134D
S31508001D809CF800E0C2F2000303EB412101EB0020BE
S31508001D904FEA0E11415800EB0E1011604168836836
S31508001DA0C06851609360D0609CF80000013000F074
S31508001DB00F008CF80000002080BD0000B0B5012897
S31508001DC084BF0320B0BD40F22813C2F2000303EB20
S31508001DD041031C5C03EB000C01349CF8043004F04E
S31508001DE00F049C4204D1012401F018F82046B0BD26
S31508001DF040F25414C2F200049CF8003004EB41216E
S31508001E0001EB002101EB03144FEA031E1368556822
S31508001E1041F80E3065609168D268A160E2609CF86E
S31508001E2000100024013101F00F018CF8001000F0B9
S31508001E30F5FF2046B0BD000070470000FFF792BAD4
S31508001E4070470000FEE700004EF60C50BFF34F8FB8
S31508001E50CEF200000168042201F4E061C0F2FA52F1
S31508001E6011430160BFF34F8F00BF00BF00BF00BF23
S31508001E70FAE700004EF60C50BFF34F8FCEF2000083
S31508001E800168042201F4E061C0F2FA5211430160CC
S31508001E90BFF34F8F00BF00BF00BF00BFFAE70000C7
S31508001EA080B5017A427A01F00F0303EB111190F81D
S31508001EB00AE001EB121102F00F02114490F80BC070
S31508001EC001EB1E110EF00F02114401EB1C110CF070
S31508001ED00F02037B114401EB131103F00F02437B3E
S31508001EE0114401EB1311827B194401EB1211C37BD8
S31508001EF01144023103F0F00201F00F011144C173DD
S31508001F0080BD000040F23010C2F2000081785529E9
S31508001F1005D3817865293EBF0C21C1707047817849
S31508001F204E2905D3817855293EBF0B21C1707047CC
S31508001F308178482905D381784E293EBF0A21C17088
S31508001F4070478178422905D3817848293EBF0921FF
S31508001F50C170704781783C2905D3817842293EBFF4
S31508001F600821C17070478178362905D381783C29C4
S31508001F703EBF0721C17070478178302905D3817823
S31508001F8036293EBF0621C17070478178292905D3B5
S31508001F90817830293EBF0521C17070478178232991
S31508001FA005D3817829293EBF0421C17070478178FD
S31508001FB01D2905D3817823293EBF0321C1707047A7
S31508001FC08178172905D381781D293EBF0221C17062
S31508001FD070478178102905D3817817293EBF0121DA
S31508001FE0C17070470021C170704700002DE9F043A9
S31508001FF081B00C46096840F25A529142814633DC58
S31508002000B1F5217F4EDAA1F5ED70182800F2718539
S31508002010DFE810F01A004C016F056F056F056F05B4
S315080020206F056F056F056F056F056F056F056F0502
S315080020306F056F056F056F056F0594016F056F05D1
S315080020406F056F059C0100BF40F20000C2F2000058
S315080020500078002840F0748540F23010C2F2000083
S315080020600A21417100F044BDB1F5B86F38DB40F282
S315080020700260814200F3B680B1F5B86F00F08E8138
S3150800208040F2EB50814240F0348540F23010C2F203
S3150800209000000178032900F053850221017000F041
S315080020A027BD00BF40F20A50814200F3C180B1F556
S315080020B0217F00F0CF8140F20A50814240F0198515
S315080020C02079082800F0B082062840F0398540F2C9
S315080020D00000C2F200000021017000F009BD00BF37
S315080020E040F25B50814200F0CB8140F29E50814223
S315080020F000F0088240F2BC50814240F0FA84627BCC
S31508002100D00611D5207AFF280ED0617A800040EAE1
S31508002110911140F23010C2F20000C182C18AB1F5B5
S31508002120B57F9CBF0121017040F20006C2F200068D
S315080021303078002840F01884207B40F23018400898
S31508002140C2F2000888F80200FFF7DCFE207AFF28B2
S3150800215000F07282617BC90600F18382617AD8F841
S31508002160202001F0030141EA80006FF3090281187B
S31508002170C8F82010B16840F2FF3291430144B160BB
S3150800218031694FF60042CFF60F72114098F80220D7
S31508002190337B02F07F0203F080031A44327398F807
S315080021A00220337D02F07F0203F080031A44327561
S315080021B098F80320084402F00F0140EA0150306104
S315080021C0E07ACD214843000B88F80D0098F80D00F9
S315080021D043F26201C0F60001085C013088F80D0080
S315080021E03FE200BF40F20360814204D040F28C60B7
S315080021F0814240F07E8440F23010C2F20000002195
S3150800220040F200054170C2F2000540F2780668788F
S31508002210C2F2000606F120020021FFF7CFFD68781A
S3150800222006F130020021FFF7C9FD00F061BC00BFCE
S3150800223040F20B50814200F09F8140F20C508142DF
S3150800224040F05784207B40F23017C2F2000740F274
S3150800225000067872C2F20006707806F14002002184
S315080022604FF00008FFF7AAFD707806F1500200212A
S31508002270FFF7A4FD707806F160020021FFF79EFDC6
S31508002280B87A0130B872B87A0F2828BF87F80A805A
S31508002290B87A86F86A00F87A002800F09D8100204E
S315080022A0F872C82086F8690000F022BC40F20000E7
S315080022B0C2F2000080F80190017851B940F230115D
S315080022C0C2F20001C979032903D1E17A41F0280154
S315080022D0E1720078012840F0638140F23010C2F2C2
S315080022E00000418A4FF47A7251434CF25032891AEF
S315080022F04BF2C532C9F2A21281FB022319444A0ADB
S3150800230002EBD1718182B0F9141046F26762B1F11D
S31508002310FF3FDCBF00218182B0F91410B1F57A7F46
S31508002320C4BF4FF47A718182B0F9141051438A14EC
S3150800233002EBD1718182808A207332E140F230103B
S31508002340C2F200000321017000F0FABBA17A40F244
S315080023503010C2F20000417040F20001C2F20001E2
S315080023600978002940F0C48300210171417939B107
S315080023704178602904D10021A1724179013941715E
S315080023800178022903D00078032840F0B183A02001
S31508002390E0722046FFF784FDAAE300BF40F200077B
S315080023A0C2F2000740F278017878C2F2000101F122
S315080023B010020021FFF702FD40F23016C2F20006B5
S315080023C096F80DC0BB7E0CF07F0103F0800319441C
S315080023D0B9767A7E97F8215097F82200717B02F039
S315080023E0800201F07F031A447A76727B00F080003F
S315080023F002F07F02104487F82200707B05F0800205
S3150800240000F07F00104487F82100707B97F82A2097
S3150800241000F07F0002F08002104487F82A00707BE3
S3150800242097F8292000F07F0002F08002104487F810
S315080024302900307C002800F0D580307C04F10801A2
S31508002440012814BF07F1280007F1200000F0C0FB9F
S31508002450DFE000BF40F23010C2F20000817901319E
S31508002460817181790229C0F043830021817140F28C
S315080024700001C2F20001487801F13002D2E600BF3D
S3150800248040F23011C2F200014A7A5520B22A40F2CF
S31508002490000208BF6FF05500A072C2F2000212785F
S315080024A04AB90A7AA37B102703F0CF03002A08BF8C
S315080024B02027DA19A273227A637A970047EA9317D4
S315080024C04F824F8A4CF6CD46774342F65276C0F68F
S315080024D00006B25CFF0C0F7382EA0301C9B2715C95
S315080024E0C0B24840305CE17A227B4840305C617B70
S315080024F05040305CA27B4840305C5040305CE07312
S31508002500F6E200BF40F20000C2F20000007801289F
S3150800251040F0FE820E20A07240F23010C2F2000097
S31508002520007BE6214843237A42F65276800841F238
S315080025307B41C0F600064843677AF35C810D0622A4
S3150800254062F31F1187EA0302B25C237B82F00E0254
S31508002550B25C800B4A40D2B2B25C63F302004240DE
S31508002560D2B2B25C637BE1725A40A37BB25C207341
S3150800257083EA0201715CBAE2E07A810940F230101E
S31508002580C2F20000C17140F20001C2F200010978EE
S31508002590002940F0AD82A17AC1F380010172A7E259
S315080025A0207B42F65271227AC0F60001637A8A5C71
S315080025B0A77A5A408A5CE37A7A408A5CC0B25A4063
S315080025C08A5C5040085C627B5040085CA27B5040A5
S315080025D0085CE0738CE200BF0120F872E82086F8F8
S315080025E0690085E2387E820142EA101020724800AE
S315080025F060724FEA4C00A072F87EE072387F4000A5
S315080026002073F87FB7F81D10E07341EA004189008E
S315080026106173307C4AF6AB2101304143490C01EB2A
S315080026204101401A307463E240F20000C2F2000031
S31508002630012101705CE200BF304630F80D1F40F200
S31508002640FF3350F8052CD0F803701A4340F8052CD0
S3150800265047EA0302C0F8032001F03F010022827016
S315080026600180B0780138B070B078002840F06881F1
S3150800267098F80E00122800F21F81DFE810F0130008
S315080026801D011D011D011D011D011D011D011D014C
S31508002690290057001D011D011D011D011D011D01F8
S315080026A061009100F07DB6F81510F27B41EA00470B
S315080026B0B6F80D0098F80E1040EA024001F01F0126
S315080026C0890120F4F86367F30A000922E0E000BFF5
S315080026D098F8000098F8001042F61A72C0F6000240
S315080026E0C1EBC10132F8111098F80C30C0EBC000EC
S315080026F0594348F21F53C5F2EB13A1FB031332F8F3
S315080027001000B6F80D10B6F81520A0EB531098F87F
S315080027100E3001F03F016FF3DF2241EAC02142EAA1
S31508002720C02003F01F0293010A22B1E098F80C00BA
S3150800273051283FD3B6F80D206FF3DF225DE000BFC6
S3150800274098F8000098F8001042F61A72C0F60002CF
S31508002750C1EBC10102EB4101898898F80C30C0EB46
S31508002760C000594348F21F53C5F2EB1302EB400071
S31508002770A1FB03138088B6F80D10B6F81520A0EB58
S31508002780531098F80E3001F03F016FF3DF2241EA4B
S31508002790C02142EAC02003F01F029301122277E00B
S315080027A098F80C0051283DD3B6F80D206FF3DF22B8
S315080027B05BE000BF98F8000098F8001042F61A721D
S315080027C0C0F60002C1EBC10102EB4101498898F845
S315080027D00C30C0EBC000594348F21F53C5F2EB1347
S315080027E0A1FB031302EB40004088B6F80D10A0EBDE
S315080027F053106FF3DF2141EAC022F07DB6F81510B9
S3150800280098F80E3041EA0040D10A61F3DF2003F060
S315080028101F014FF63F03C0F2FF038901134011223F
S3150800282036E000BF98F8000098F8001042F61A72D1
S31508002830C0F60002C1EBC10102EB4101C98898F854
S315080028400C30C0EBC000594348F21F53C5F2EB13D6
S31508002850A1FB031302EB4000C088B6F80D10A0EBED
S3150800286053106FF3DF2141EAC022F07DB6F8151048
S3150800287098F80E3041EA0040D10A61F3DF2003F0F0
S315080028801F014FF63F03C0F2FF03890113400022E0
S315080028901943A6F80D10090CF17398F80E104FF6A7
S315080028A03F0301F01F01034043EA8111000CF07554
S315080028B0A6F8151088F80E2098F80D00B168326948
S315080028C021F07F4141EA0061B16098F80D0022F0DD
S315080028D07F4242EA0060306198F80020C2B198F859
S315080028E00120C02A14D198F80C204FF496735A4345
S315080028F092B2920841F27B435A4340F2FF3399431E
S315080029006FF3090041EA524140EA5240B160306132
S3150800291098F80F10B1FA81F0002940F27801C2F256
S3150800292000014FEA501706F1080001F1080108BF37
S3150800293006F1100000F014F9052088F80F70B07041
S3150800294040F27800C2F20000017A2172417A61727F
S31508002950817AA172C17AE172017B2173427B62732B
S31508002960817BA173C07BE0733078012840F0C0807A
S31508002970D00609D4207A617A800040EA911040F2A4
S315080029803011C2F20001088340F23011C2F2000190
S31508002990088BCD2780082072088BE37A80017B4359
S315080029A01B0B6072A07B4B734B7B43F26207C0F62E
S315080029B00007FB5C02F0030201334B73430943EA49
S315080029C0C2028A738A7B053A132A00F29180DFE8ED
S315080029D002F00B8F8F1D8F8F2D8F8F8F8F8F8F3FCD
S315080029E08F8F558F8F6B00BF0A780F7842F61A7350
S315080029F0C2EBC202C0F60003C7EBC70703EB4202ED
S31508002A0003EB47039B89097B928962E00A780B7876
S31508002A1042F61A77C2EBC202C0F60007C3EBC3033D
S31508002A2037F81330097B37F8122052E00A780F7806
S31508002A3042F61A73C2EBC202C0F60003C7EBC70719
S31508002A4003EB420203EB47039B88097B928840E02D
S31508002A500A7B4F2A7ED80A780F7842F61A73C2EB99
S31508002A60C202C0F60003C7EBC70703EB420203EB3B
S31508002A7047035289097B5B892AE000BF0A7B4F2AF4
S31508002A8068D80A780F7842F61A73C2EBC202C0F603
S31508002A900003C7EBC70703EB420203EB4703528861
S31508002AA0097B5B8814E000BF0A7B4F2A52D80A7854
S31508002AB00F7842F61A73C2EBC202C0F60003C7EBE0
S31508002AC0C70703EB420203EB4703D288097BDB887F
S31508002AD01431594348F21F53C5F2EB13A1FB0313F4
S31508002AE0A2EB531100F0E00040EA1120A073E17355
S31508002AF0216840F2C450814212DC40F255308142CE
S31508002B001AD0B1F56E7F17D040F29E50814217D188
S31508002B1040F20000C2F20000007888B90CE000BF5D
S31508002B2040F2C550814207D040F2EC50814203D0B2
S31508002B3040F22560814203D101B0BDE8F08300BFB1
S31508002B40B9FA89F040090021224601B0BDE8F043F0
S31508002B50FFF734B900F0E000A0730020E073C7E780
S31508002B60026892080A700268C2F3843343EA821242
S31508002B704A700268F02303EA9213C2F303521A4416
S31508002B808A70C278CA700279530043EAD2120A716F
S31508002B9030F8052F837842EA0342042303EAD20376
S31508002BA043EA4213C2F341221A444A7182780388DF
S31508002BB043EA0242E02303EA520343EAD2428A7115
S31508002BC08278008840EA0240C00AC871704700004F
S31508002BD00278930143EA12120A70427852004A7048
S31508002BE0827852008A70C278CA70027952000A71D5
S31508002BF0427992004A71C079C871704794B0FEF75D
S31508002C00BFFB092006904FF48030022508900790F4
S31508002C10CDE90E504FF4E010CDE910054FF4C06031
S31508002C20042112904020002409910121139006A83E
S31508002C300C94CDE90A440B910D91FEF761FD20B184
S31508002C40EFF3108072B6FEF741FC0F20CDE90105BF
S31508002C508020CDE9030401A802210594FEF748FC6B
S31508002C6020B1EFF3108072B6FEF730FC7020C4F284
S31508002C7042200121016042F60E714FF2E870C0F65B
S31508002C800001C1F6FF700C22FDF748FB002840F052
S31508002C90AD80FFF717F8FEF7D1FFFEF7F1FF41F217
S31508002CA00004C4F2010420464FF48051FEF74EFB9F
S31508002CB020464FF40061FEF749FB20464FF4806139
S31508002CC0FEF744FBA4F500604FF40041FEF73EFB17
S31508002CD040F25858C2F2000840F66562C0F6000293
S31508002CE040460621FEF762F840F68D72C0F60002ED
S31508002CF040460821FEF75AF840F2BC55C2F20005D4
S31508002D0040F6F962C0F6000228460621FEF74EF89C
S31508002D1041F21D02C0F6000228460821FEF746F8D1
S31508002D2040460221FDF70AFC28461021FDF706FC5D
S31508002D304046FDF7ADFB2846FDF7AAFB40F22017F3
S31508002D40C2F20007002406AE0BE000BF002000F028
S31508002D5065F8012000F062F8D8F800008069286854
S31508002D608069FEF7F9FA7968401AB0F57A7F1DD3BB
S31508002D70FEF7F2FA786000F03BF800200121FEF732
S31508002D803DFF98B901200121FEF738FF70B9387860
S31508002D900130C1B20629387008D3FEF723FF002098
S31508002DA00121FEF795FBFEF7FDFE3C700020012190
S31508002DB0FEF724FF48B10020012132463C70FEF799
S31508002DC0CDFF00203146FFF711F901200121FEF75A
S31508002DD015FF0028BAD00120012132463C70FEF7C3
S31508002DE0BDFF01203146FFF701F9AFE7FFF72CF8E1
S31508002DF040F20000C2F200000078002818BF7047B1
S31508002E0040F23010C2F200000179013101710179F6
S31508002E10022924BF0021417070470000F0B58DB02B
S31508002E2040F22817C2F200073E180546385C317989
S31508002E30884208D0785D3179884207D9785D31793A
S31508002E40401A000608D10DB0F0BD00BF3079795D93
S31508002E50081A10300006F6D023A050F82540204660
S31508002E60FDF7E4FC0328EED13079795D884209D173
S31508002E70042000220690CDE9072202A80AA9FDF738
S31508002E8098FA22E040F254113079C2F2000101EBBF
S31508002E90052101EB0013000108581A7959799F7921
S31508002EA0DD689B680029CDE90A35337918BF012109
S31508002EB0013303F00F0333718B0004AE46F821008B
S31508002EC00693089257B10220079004A902AA01ABFB
S31508002ED02046FDF74BFB0DB0F0BD00BF0020002AD1
S31508002EE00790CAD1F1E700BF58050020BC050020AD
S31508002EF0000004050607080900000000000D000090
S31508002F000000000000000102030406070809334414
S31508002F1055661122334477665544AE015401BC0206
S31508002F2030023C009600BE005802E0018403D0023D
S31508002F303C00C800F500DA02440220038002500073
S31508002F400E014F016A048403D00740065000AE0103
S31508002F50170200858F0A9B1E1491B3363CB928AD1B
S31508002F60A722E3666CE978FDF77250D5DF5ACB4E97
S31508002F7044C143C6CC49D85D57D2F0757FFA6BEE8B
S31508002F80E461A0252FAA3BBEB43113969C19880D7F
S31508002F9007828603098C1D98921735B0BA3FAE2B67
S31508002FA021A465E0EA6FFE7B71F4D65359DC4DC85F
S31508002FB0C247C5404ACF5EDBD15476F3F97CED684B
S31508002FC062E726A3A92CBD3832B795101A9F0E8B37
S31508002FD08104890C068312979D183ABFB530A1243F
S31508002FE02EAB6AEFE560F1747EFBD95C56D342C717
S31508002FF0CD48CA4F45C051D4DE5B79FCF673E2670B
S315080030006DE829ACA623B2373DB89A1F15900184FE
S315080030108E0B0F8A800594111B9EBC3933B627A2E6
S31508003020A82DEC6963E677F2F87D5FDAD055C441DE
S315080030304BCE4CC9C346D75258DDFF7A70F564E1CA
S31508003040EB6EAF2A20A534B1BB3E1C9993168702B6
S31508003050088D0102030405060708090A0B0C0D0E64
S315080030600F10191C1F2225323F4C505255575A0033
S315080030709030000800000020C00000008C01000805
S3150800308050310008C0000020680B0000A8010008A5
S3150800309001020100000000002CC900326360020032
S315080030A02CC9C032E3600200014242000239000026
S315080030B002404000022800000340400002150000BC
S315080030C05503000008000000140A1397100040007A
S315080030D025060000060000000200FF1D2000000073
S315080030E0C50500000800000040012F5E0000000032
S315080030F0B8030000050000007FE80107FF00000094
S315080031000100000010000000BC05000008000000D7
S315080031100000000000000000EC05000001000000AF
S315080031200000000000000000050600000100000085
S315080031300000000000000000070600000100000073
S3150800314000000000000000000024F4000000000059
S70508000151A0
